{
  "contracts/HugSenderWithGifts.sol": {
    "HugSenderWithGifts": {
      "abi": [
        {
          "inputs": [],
          "stateMutability": "payable",
          "type": "constructor"
        },
        {
          "anonymous": false,
          "inputs": [
            {
              "indexed": true,
              "internalType": "address",
              "name": "from",
              "type": "address"
            },
            {
              "indexed": false,
              "internalType": "uint256",
              "name": "timestamp",
              "type": "uint256"
            },
            {
              "indexed": false,
              "internalType": "string",
              "name": "message",
              "type": "string"
            }
          ],
          "name": "NewHug",
          "type": "event"
        },
        {
          "inputs": [],
          "name": "getAllHugs",
          "outputs": [
            {
              "components": [
                {
                  "internalType": "address",
                  "name": "hugger",
                  "type": "address"
                },
                {
                  "internalType": "string",
                  "name": "message",
                  "type": "string"
                },
                {
                  "internalType": "uint256",
                  "name": "timestamp",
                  "type": "uint256"
                }
              ],
              "internalType": "struct HugSenderWithGifts.Hug[]",
              "name": "",
              "type": "tuple[]"
            }
          ],
          "stateMutability": "view",
          "type": "function"
        },
        {
          "inputs": [],
          "name": "getLastHugged",
          "outputs": [
            {
              "internalType": "uint256",
              "name": "",
              "type": "uint256"
            }
          ],
          "stateMutability": "view",
          "type": "function"
        },
        {
          "inputs": [],
          "name": "getTotalHugs",
          "outputs": [
            {
              "internalType": "uint256",
              "name": "",
              "type": "uint256"
            }
          ],
          "stateMutability": "view",
          "type": "function"
        },
        {
          "inputs": [
            {
              "internalType": "string",
              "name": "_message",
              "type": "string"
            }
          ],
          "name": "hugMe",
          "outputs": [],
          "stateMutability": "nonpayable",
          "type": "function"
        },
        {
          "inputs": [
            {
              "internalType": "address",
              "name": "",
              "type": "address"
            }
          ],
          "name": "lastWavedAt",
          "outputs": [
            {
              "internalType": "uint256",
              "name": "",
              "type": "uint256"
            }
          ],
          "stateMutability": "view",
          "type": "function"
        },
        {
          "stateMutability": "payable",
          "type": "receive"
        }
      ],
      "evm": {
        "bytecode": {
          "linkReferences": {},
          "object": "6080604052610dcf806100136000396000f3fe60806040526004361061004e5760003560e01c806323dcc61b1461005a5780634222088114610083578063677f0c21146100ae578063a42a4663146100d9578063cd9a93e41461011657610055565b3661005557005b600080fd5b34801561006657600080fd5b50610081600480360381019061007c919061074b565b610141565b005b34801561008f57600080fd5b50610098610449565b6040516100a59190610ac1565b60405180910390f35b3480156100ba57600080fd5b506100c3610452565b6040516100d09190610a3f565b60405180910390f35b3480156100e557600080fd5b5061010060048036038101906100fb9190610722565b6105a3565b60405161010d9190610ac1565b60405180910390f35b34801561012257600080fd5b5061012b6105bb565b6040516101389190610ac1565b60405180910390f35b426202a300600260003373ffffffffffffffffffffffffffffffffffffffff1673ffffffffffffffffffffffffffffffffffffffff168152602001908152602001600020546101909190610bde565b106101d0576040517f08c379a00000000000000000000000000000000000000000000000000000000081526004016101c790610aa1565b60405180910390fd5b42600260003373ffffffffffffffffffffffffffffffffffffffff1673ffffffffffffffffffffffffffffffffffffffff1681526020019081526020016000208190555060016000808282546102269190610bde565b92505081905550600160405180606001604052803373ffffffffffffffffffffffffffffffffffffffff16815260200183815260200142815250908060018154018082558091505060019003906000526020600020906003020160009091909190915060008201518160000160006101000a81548173ffffffffffffffffffffffffffffffffffffffff021916908373ffffffffffffffffffffffffffffffffffffffff16021790555060208201518160010190805190602001906102ec929190610602565b506040820151816002015550503373ffffffffffffffffffffffffffffffffffffffff167fa5963c21658af7cb8ea8def690d3353743bf24a79c848dc45252fcb66042f4b14283604051610341929190610adc565b60405180910390a2600066038d7ea4c68000905047811115610398576040517f08c379a000000000000000000000000000000000000000000000000000000000815260040161038f90610a61565b60405180910390fd5b60003373ffffffffffffffffffffffffffffffffffffffff16826040516103be90610a2a565b60006040518083038185875af1925050503d80600081146103fb576040519150601f19603f3d011682016040523d82523d6000602084013e610400565b606091505b5050905080610444576040517f08c379a000000000000000000000000000000000000000000000000000000000815260040161043b90610a81565b60405180910390fd5b505050565b60008054905090565b60606001805480602002602001604051908101604052809291908181526020016000905b8282101561059a57838290600052602060002090600302016040518060600160405290816000820160009054906101000a900473ffffffffffffffffffffffffffffffffffffffff1673ffffffffffffffffffffffffffffffffffffffff1673ffffffffffffffffffffffffffffffffffffffff1681526020016001820180546104ff90610cb2565b80601f016020809104026020016040519081016040528092919081815260200182805461052b90610cb2565b80156105785780601f1061054d57610100808354040283529160200191610578565b820191906000526020600020905b81548152906001019060200180831161055b57829003601f168201915b5050505050815260200160028201548152505081526020019060010190610476565b50505050905090565b60026020528060005260406000206000915090505481565b6000600260003073ffffffffffffffffffffffffffffffffffffffff1673ffffffffffffffffffffffffffffffffffffffff16815260200190815260200160002054905090565b82805461060e90610cb2565b90600052602060002090601f0160209004810192826106305760008555610677565b82601f1061064957805160ff1916838001178555610677565b82800160010185558215610677579182015b8281111561067657825182559160200191906001019061065b565b5b5090506106849190610688565b5090565b5b808211156106a1576000816000905550600101610689565b5090565b60006106b86106b384610b3d565b610b0c565b9050828152602081018484840111156106d057600080fd5b6106db848285610c70565b509392505050565b6000813590506106f281610d82565b92915050565b600082601f83011261070957600080fd5b81356107198482602086016106a5565b91505092915050565b60006020828403121561073457600080fd5b6000610742848285016106e3565b91505092915050565b60006020828403121561075d57600080fd5b600082013567ffffffffffffffff81111561077757600080fd5b610783848285016106f8565b91505092915050565b600061079883836109bc565b905092915050565b6107a981610c34565b82525050565b60006107ba82610b7d565b6107c48185610ba0565b9350836020820285016107d685610b6d565b8060005b8581101561081257848403895281516107f3858261078c565b94506107fe83610b93565b925060208a019950506001810190506107da565b50829750879550505050505092915050565b600061082f82610b88565b6108398185610bbc565b9350610849818560208601610c7f565b61085281610d71565b840191505092915050565b600061086882610b88565b6108728185610bcd565b9350610882818560208601610c7f565b61088b81610d71565b840191505092915050565b60006108a3603483610bcd565b91507f547279696e6720746f207769746864726177206d6f7265206d6f6e657920746860008301527f616e2074686520636f6e7472616374206861732e0000000000000000000000006020830152604082019050919050565b6000610909602783610bcd565b91507f4661696c656420746f207769746864726177206d6f6e65792066726f6d20636f60008301527f6e74726163742e000000000000000000000000000000000000000000000000006020830152604082019050919050565b600061096f600083610bb1565b9150600082019050919050565b6000610989600883610bcd565b91507f576169742031356d0000000000000000000000000000000000000000000000006000830152602082019050919050565b60006060830160008301516109d460008601826107a0565b50602083015184820360208601526109ec8282610824565b9150506040830151610a016040860182610a0c565b508091505092915050565b610a1581610c66565b82525050565b610a2481610c66565b82525050565b6000610a3582610962565b9150819050919050565b60006020820190508181036000830152610a5981846107af565b905092915050565b60006020820190508181036000830152610a7a81610896565b9050919050565b60006020820190508181036000830152610a9a816108fc565b9050919050565b60006020820190508181036000830152610aba8161097c565b9050919050565b6000602082019050610ad66000830184610a1b565b92915050565b6000604082019050610af16000830185610a1b565b8181036020830152610b03818461085d565b90509392505050565b6000604051905081810181811067ffffffffffffffff82111715610b3357610b32610d42565b5b8060405250919050565b600067ffffffffffffffff821115610b5857610b57610d42565b5b601f19601f8301169050602081019050919050565b6000819050602082019050919050565b600081519050919050565b600081519050919050565b6000602082019050919050565b600082825260208201905092915050565b600081905092915050565b600082825260208201905092915050565b600082825260208201905092915050565b6000610be982610c66565b9150610bf483610c66565b9250827fffffffffffffffffffffffffffffffffffffffffffffffffffffffffffffffff03821115610c2957610c28610ce4565b5b828201905092915050565b6000610c3f82610c46565b9050919050565b600073ffffffffffffffffffffffffffffffffffffffff82169050919050565b6000819050919050565b82818337600083830152505050565b60005b83811015610c9d578082015181840152602081019050610c82565b83811115610cac576000848401525b50505050565b60006002820490506001821680610cca57607f821691505b60208210811415610cde57610cdd610d13565b5b50919050565b7f4e487b7100000000000000000000000000000000000000000000000000000000600052601160045260246000fd5b7f4e487b7100000000000000000000000000000000000000000000000000000000600052602260045260246000fd5b7f4e487b7100000000000000000000000000000000000000000000000000000000600052604160045260246000fd5b6000601f19601f8301169050919050565b610d8b81610c34565b8114610d9657600080fd5b5056fea26469706673582212204b841447206e15267ace634693a18cb9d15db363b23ddf35cfb594d44068c8d264736f6c63430008000033",
          "opcodes": "PUSH1 0x80 PUSH1 0x40 MSTORE PUSH2 0xDCF DUP1 PUSH2 0x13 PUSH1 0x0 CODECOPY PUSH1 0x0 RETURN INVALID PUSH1 0x80 PUSH1 0x40 MSTORE PUSH1 0x4 CALLDATASIZE LT PUSH2 0x4E JUMPI PUSH1 0x0 CALLDATALOAD PUSH1 0xE0 SHR DUP1 PUSH4 0x23DCC61B EQ PUSH2 0x5A JUMPI DUP1 PUSH4 0x42220881 EQ PUSH2 0x83 JUMPI DUP1 PUSH4 0x677F0C21 EQ PUSH2 0xAE JUMPI DUP1 PUSH4 0xA42A4663 EQ PUSH2 0xD9 JUMPI DUP1 PUSH4 0xCD9A93E4 EQ PUSH2 0x116 JUMPI PUSH2 0x55 JUMP JUMPDEST CALLDATASIZE PUSH2 0x55 JUMPI STOP JUMPDEST PUSH1 0x0 DUP1 REVERT JUMPDEST CALLVALUE DUP1 ISZERO PUSH2 0x66 JUMPI PUSH1 0x0 DUP1 REVERT JUMPDEST POP PUSH2 0x81 PUSH1 0x4 DUP1 CALLDATASIZE SUB DUP2 ADD SWAP1 PUSH2 0x7C SWAP2 SWAP1 PUSH2 0x74B JUMP JUMPDEST PUSH2 0x141 JUMP JUMPDEST STOP JUMPDEST CALLVALUE DUP1 ISZERO PUSH2 0x8F JUMPI PUSH1 0x0 DUP1 REVERT JUMPDEST POP PUSH2 0x98 PUSH2 0x449 JUMP JUMPDEST PUSH1 0x40 MLOAD PUSH2 0xA5 SWAP2 SWAP1 PUSH2 0xAC1 JUMP JUMPDEST PUSH1 0x40 MLOAD DUP1 SWAP2 SUB SWAP1 RETURN JUMPDEST CALLVALUE DUP1 ISZERO PUSH2 0xBA JUMPI PUSH1 0x0 DUP1 REVERT JUMPDEST POP PUSH2 0xC3 PUSH2 0x452 JUMP JUMPDEST PUSH1 0x40 MLOAD PUSH2 0xD0 SWAP2 SWAP1 PUSH2 0xA3F JUMP JUMPDEST PUSH1 0x40 MLOAD DUP1 SWAP2 SUB SWAP1 RETURN JUMPDEST CALLVALUE DUP1 ISZERO PUSH2 0xE5 JUMPI PUSH1 0x0 DUP1 REVERT JUMPDEST POP PUSH2 0x100 PUSH1 0x4 DUP1 CALLDATASIZE SUB DUP2 ADD SWAP1 PUSH2 0xFB SWAP2 SWAP1 PUSH2 0x722 JUMP JUMPDEST PUSH2 0x5A3 JUMP JUMPDEST PUSH1 0x40 MLOAD PUSH2 0x10D SWAP2 SWAP1 PUSH2 0xAC1 JUMP JUMPDEST PUSH1 0x40 MLOAD DUP1 SWAP2 SUB SWAP1 RETURN JUMPDEST CALLVALUE DUP1 ISZERO PUSH2 0x122 JUMPI PUSH1 0x0 DUP1 REVERT JUMPDEST POP PUSH2 0x12B PUSH2 0x5BB JUMP JUMPDEST PUSH1 0x40 MLOAD PUSH2 0x138 SWAP2 SWAP1 PUSH2 0xAC1 JUMP JUMPDEST PUSH1 0x40 MLOAD DUP1 SWAP2 SUB SWAP1 RETURN JUMPDEST TIMESTAMP PUSH3 0x2A300 PUSH1 0x2 PUSH1 0x0 CALLER PUSH20 0xFFFFFFFFFFFFFFFFFFFFFFFFFFFFFFFFFFFFFFFF AND PUSH20 0xFFFFFFFFFFFFFFFFFFFFFFFFFFFFFFFFFFFFFFFF AND DUP2 MSTORE PUSH1 0x20 ADD SWAP1 DUP2 MSTORE PUSH1 0x20 ADD PUSH1 0x0 KECCAK256 SLOAD PUSH2 0x190 SWAP2 SWAP1 PUSH2 0xBDE JUMP JUMPDEST LT PUSH2 0x1D0 JUMPI PUSH1 0x40 MLOAD PUSH32 0x8C379A000000000000000000000000000000000000000000000000000000000 DUP2 MSTORE PUSH1 0x4 ADD PUSH2 0x1C7 SWAP1 PUSH2 0xAA1 JUMP JUMPDEST PUSH1 0x40 MLOAD DUP1 SWAP2 SUB SWAP1 REVERT JUMPDEST TIMESTAMP PUSH1 0x2 PUSH1 0x0 CALLER PUSH20 0xFFFFFFFFFFFFFFFFFFFFFFFFFFFFFFFFFFFFFFFF AND PUSH20 0xFFFFFFFFFFFFFFFFFFFFFFFFFFFFFFFFFFFFFFFF AND DUP2 MSTORE PUSH1 0x20 ADD SWAP1 DUP2 MSTORE PUSH1 0x20 ADD PUSH1 0x0 KECCAK256 DUP2 SWAP1 SSTORE POP PUSH1 0x1 PUSH1 0x0 DUP1 DUP3 DUP3 SLOAD PUSH2 0x226 SWAP2 SWAP1 PUSH2 0xBDE JUMP JUMPDEST SWAP3 POP POP DUP2 SWAP1 SSTORE POP PUSH1 0x1 PUSH1 0x40 MLOAD DUP1 PUSH1 0x60 ADD PUSH1 0x40 MSTORE DUP1 CALLER PUSH20 0xFFFFFFFFFFFFFFFFFFFFFFFFFFFFFFFFFFFFFFFF AND DUP2 MSTORE PUSH1 0x20 ADD DUP4 DUP2 MSTORE PUSH1 0x20 ADD TIMESTAMP DUP2 MSTORE POP SWAP1 DUP1 PUSH1 0x1 DUP2 SLOAD ADD DUP1 DUP3 SSTORE DUP1 SWAP2 POP POP PUSH1 0x1 SWAP1 SUB SWAP1 PUSH1 0x0 MSTORE PUSH1 0x20 PUSH1 0x0 KECCAK256 SWAP1 PUSH1 0x3 MUL ADD PUSH1 0x0 SWAP1 SWAP2 SWAP1 SWAP2 SWAP1 SWAP2 POP PUSH1 0x0 DUP3 ADD MLOAD DUP2 PUSH1 0x0 ADD PUSH1 0x0 PUSH2 0x100 EXP DUP2 SLOAD DUP2 PUSH20 0xFFFFFFFFFFFFFFFFFFFFFFFFFFFFFFFFFFFFFFFF MUL NOT AND SWAP1 DUP4 PUSH20 0xFFFFFFFFFFFFFFFFFFFFFFFFFFFFFFFFFFFFFFFF AND MUL OR SWAP1 SSTORE POP PUSH1 0x20 DUP3 ADD MLOAD DUP2 PUSH1 0x1 ADD SWAP1 DUP1 MLOAD SWAP1 PUSH1 0x20 ADD SWAP1 PUSH2 0x2EC SWAP3 SWAP2 SWAP1 PUSH2 0x602 JUMP JUMPDEST POP PUSH1 0x40 DUP3 ADD MLOAD DUP2 PUSH1 0x2 ADD SSTORE POP POP CALLER PUSH20 0xFFFFFFFFFFFFFFFFFFFFFFFFFFFFFFFFFFFFFFFF AND PUSH32 0xA5963C21658AF7CB8EA8DEF690D3353743BF24A79C848DC45252FCB66042F4B1 TIMESTAMP DUP4 PUSH1 0x40 MLOAD PUSH2 0x341 SWAP3 SWAP2 SWAP1 PUSH2 0xADC JUMP JUMPDEST PUSH1 0x40 MLOAD DUP1 SWAP2 SUB SWAP1 LOG2 PUSH1 0x0 PUSH7 0x38D7EA4C68000 SWAP1 POP SELFBALANCE DUP2 GT ISZERO PUSH2 0x398 JUMPI PUSH1 0x40 MLOAD PUSH32 0x8C379A000000000000000000000000000000000000000000000000000000000 DUP2 MSTORE PUSH1 0x4 ADD PUSH2 0x38F SWAP1 PUSH2 0xA61 JUMP JUMPDEST PUSH1 0x40 MLOAD DUP1 SWAP2 SUB SWAP1 REVERT JUMPDEST PUSH1 0x0 CALLER PUSH20 0xFFFFFFFFFFFFFFFFFFFFFFFFFFFFFFFFFFFFFFFF AND DUP3 PUSH1 0x40 MLOAD PUSH2 0x3BE SWAP1 PUSH2 0xA2A JUMP JUMPDEST PUSH1 0x0 PUSH1 0x40 MLOAD DUP1 DUP4 SUB DUP2 DUP6 DUP8 GAS CALL SWAP3 POP POP POP RETURNDATASIZE DUP1 PUSH1 0x0 DUP2 EQ PUSH2 0x3FB JUMPI PUSH1 0x40 MLOAD SWAP2 POP PUSH1 0x1F NOT PUSH1 0x3F RETURNDATASIZE ADD AND DUP3 ADD PUSH1 0x40 MSTORE RETURNDATASIZE DUP3 MSTORE RETURNDATASIZE PUSH1 0x0 PUSH1 0x20 DUP5 ADD RETURNDATACOPY PUSH2 0x400 JUMP JUMPDEST PUSH1 0x60 SWAP2 POP JUMPDEST POP POP SWAP1 POP DUP1 PUSH2 0x444 JUMPI PUSH1 0x40 MLOAD PUSH32 0x8C379A000000000000000000000000000000000000000000000000000000000 DUP2 MSTORE PUSH1 0x4 ADD PUSH2 0x43B SWAP1 PUSH2 0xA81 JUMP JUMPDEST PUSH1 0x40 MLOAD DUP1 SWAP2 SUB SWAP1 REVERT JUMPDEST POP POP POP JUMP JUMPDEST PUSH1 0x0 DUP1 SLOAD SWAP1 POP SWAP1 JUMP JUMPDEST PUSH1 0x60 PUSH1 0x1 DUP1 SLOAD DUP1 PUSH1 0x20 MUL PUSH1 0x20 ADD PUSH1 0x40 MLOAD SWAP1 DUP2 ADD PUSH1 0x40 MSTORE DUP1 SWAP3 SWAP2 SWAP1 DUP2 DUP2 MSTORE PUSH1 0x20 ADD PUSH1 0x0 SWAP1 JUMPDEST DUP3 DUP3 LT ISZERO PUSH2 0x59A JUMPI DUP4 DUP3 SWAP1 PUSH1 0x0 MSTORE PUSH1 0x20 PUSH1 0x0 KECCAK256 SWAP1 PUSH1 0x3 MUL ADD PUSH1 0x40 MLOAD DUP1 PUSH1 0x60 ADD PUSH1 0x40 MSTORE SWAP1 DUP2 PUSH1 0x0 DUP3 ADD PUSH1 0x0 SWAP1 SLOAD SWAP1 PUSH2 0x100 EXP SWAP1 DIV PUSH20 0xFFFFFFFFFFFFFFFFFFFFFFFFFFFFFFFFFFFFFFFF AND PUSH20 0xFFFFFFFFFFFFFFFFFFFFFFFFFFFFFFFFFFFFFFFF AND PUSH20 0xFFFFFFFFFFFFFFFFFFFFFFFFFFFFFFFFFFFFFFFF AND DUP2 MSTORE PUSH1 0x20 ADD PUSH1 0x1 DUP3 ADD DUP1 SLOAD PUSH2 0x4FF SWAP1 PUSH2 0xCB2 JUMP JUMPDEST DUP1 PUSH1 0x1F ADD PUSH1 0x20 DUP1 SWAP2 DIV MUL PUSH1 0x20 ADD PUSH1 0x40 MLOAD SWAP1 DUP2 ADD PUSH1 0x40 MSTORE DUP1 SWAP3 SWAP2 SWAP1 DUP2 DUP2 MSTORE PUSH1 0x20 ADD DUP3 DUP1 SLOAD PUSH2 0x52B SWAP1 PUSH2 0xCB2 JUMP JUMPDEST DUP1 ISZERO PUSH2 0x578 JUMPI DUP1 PUSH1 0x1F LT PUSH2 0x54D JUMPI PUSH2 0x100 DUP1 DUP4 SLOAD DIV MUL DUP4 MSTORE SWAP2 PUSH1 0x20 ADD SWAP2 PUSH2 0x578 JUMP JUMPDEST DUP3 ADD SWAP2 SWAP1 PUSH1 0x0 MSTORE PUSH1 0x20 PUSH1 0x0 KECCAK256 SWAP1 JUMPDEST DUP2 SLOAD DUP2 MSTORE SWAP1 PUSH1 0x1 ADD SWAP1 PUSH1 0x20 ADD DUP1 DUP4 GT PUSH2 0x55B JUMPI DUP3 SWAP1 SUB PUSH1 0x1F AND DUP3 ADD SWAP2 JUMPDEST POP POP POP POP POP DUP2 MSTORE PUSH1 0x20 ADD PUSH1 0x2 DUP3 ADD SLOAD DUP2 MSTORE POP POP DUP2 MSTORE PUSH1 0x20 ADD SWAP1 PUSH1 0x1 ADD SWAP1 PUSH2 0x476 JUMP JUMPDEST POP POP POP POP SWAP1 POP SWAP1 JUMP JUMPDEST PUSH1 0x2 PUSH1 0x20 MSTORE DUP1 PUSH1 0x0 MSTORE PUSH1 0x40 PUSH1 0x0 KECCAK256 PUSH1 0x0 SWAP2 POP SWAP1 POP SLOAD DUP2 JUMP JUMPDEST PUSH1 0x0 PUSH1 0x2 PUSH1 0x0 ADDRESS PUSH20 0xFFFFFFFFFFFFFFFFFFFFFFFFFFFFFFFFFFFFFFFF AND PUSH20 0xFFFFFFFFFFFFFFFFFFFFFFFFFFFFFFFFFFFFFFFF AND DUP2 MSTORE PUSH1 0x20 ADD SWAP1 DUP2 MSTORE PUSH1 0x20 ADD PUSH1 0x0 KECCAK256 SLOAD SWAP1 POP SWAP1 JUMP JUMPDEST DUP3 DUP1 SLOAD PUSH2 0x60E SWAP1 PUSH2 0xCB2 JUMP JUMPDEST SWAP1 PUSH1 0x0 MSTORE PUSH1 0x20 PUSH1 0x0 KECCAK256 SWAP1 PUSH1 0x1F ADD PUSH1 0x20 SWAP1 DIV DUP2 ADD SWAP3 DUP3 PUSH2 0x630 JUMPI PUSH1 0x0 DUP6 SSTORE PUSH2 0x677 JUMP JUMPDEST DUP3 PUSH1 0x1F LT PUSH2 0x649 JUMPI DUP1 MLOAD PUSH1 0xFF NOT AND DUP4 DUP1 ADD OR DUP6 SSTORE PUSH2 0x677 JUMP JUMPDEST DUP3 DUP1 ADD PUSH1 0x1 ADD DUP6 SSTORE DUP3 ISZERO PUSH2 0x677 JUMPI SWAP2 DUP3 ADD JUMPDEST DUP3 DUP2 GT ISZERO PUSH2 0x676 JUMPI DUP3 MLOAD DUP3 SSTORE SWAP2 PUSH1 0x20 ADD SWAP2 SWAP1 PUSH1 0x1 ADD SWAP1 PUSH2 0x65B JUMP JUMPDEST JUMPDEST POP SWAP1 POP PUSH2 0x684 SWAP2 SWAP1 PUSH2 0x688 JUMP JUMPDEST POP SWAP1 JUMP JUMPDEST JUMPDEST DUP1 DUP3 GT ISZERO PUSH2 0x6A1 JUMPI PUSH1 0x0 DUP2 PUSH1 0x0 SWAP1 SSTORE POP PUSH1 0x1 ADD PUSH2 0x689 JUMP JUMPDEST POP SWAP1 JUMP JUMPDEST PUSH1 0x0 PUSH2 0x6B8 PUSH2 0x6B3 DUP5 PUSH2 0xB3D JUMP JUMPDEST PUSH2 0xB0C JUMP JUMPDEST SWAP1 POP DUP3 DUP2 MSTORE PUSH1 0x20 DUP2 ADD DUP5 DUP5 DUP5 ADD GT ISZERO PUSH2 0x6D0 JUMPI PUSH1 0x0 DUP1 REVERT JUMPDEST PUSH2 0x6DB DUP5 DUP3 DUP6 PUSH2 0xC70 JUMP JUMPDEST POP SWAP4 SWAP3 POP POP POP JUMP JUMPDEST PUSH1 0x0 DUP2 CALLDATALOAD SWAP1 POP PUSH2 0x6F2 DUP2 PUSH2 0xD82 JUMP JUMPDEST SWAP3 SWAP2 POP POP JUMP JUMPDEST PUSH1 0x0 DUP3 PUSH1 0x1F DUP4 ADD SLT PUSH2 0x709 JUMPI PUSH1 0x0 DUP1 REVERT JUMPDEST DUP2 CALLDATALOAD PUSH2 0x719 DUP5 DUP3 PUSH1 0x20 DUP7 ADD PUSH2 0x6A5 JUMP JUMPDEST SWAP2 POP POP SWAP3 SWAP2 POP POP JUMP JUMPDEST PUSH1 0x0 PUSH1 0x20 DUP3 DUP5 SUB SLT ISZERO PUSH2 0x734 JUMPI PUSH1 0x0 DUP1 REVERT JUMPDEST PUSH1 0x0 PUSH2 0x742 DUP5 DUP3 DUP6 ADD PUSH2 0x6E3 JUMP JUMPDEST SWAP2 POP POP SWAP3 SWAP2 POP POP JUMP JUMPDEST PUSH1 0x0 PUSH1 0x20 DUP3 DUP5 SUB SLT ISZERO PUSH2 0x75D JUMPI PUSH1 0x0 DUP1 REVERT JUMPDEST PUSH1 0x0 DUP3 ADD CALLDATALOAD PUSH8 0xFFFFFFFFFFFFFFFF DUP2 GT ISZERO PUSH2 0x777 JUMPI PUSH1 0x0 DUP1 REVERT JUMPDEST PUSH2 0x783 DUP5 DUP3 DUP6 ADD PUSH2 0x6F8 JUMP JUMPDEST SWAP2 POP POP SWAP3 SWAP2 POP POP JUMP JUMPDEST PUSH1 0x0 PUSH2 0x798 DUP4 DUP4 PUSH2 0x9BC JUMP JUMPDEST SWAP1 POP SWAP3 SWAP2 POP POP JUMP JUMPDEST PUSH2 0x7A9 DUP2 PUSH2 0xC34 JUMP JUMPDEST DUP3 MSTORE POP POP JUMP JUMPDEST PUSH1 0x0 PUSH2 0x7BA DUP3 PUSH2 0xB7D JUMP JUMPDEST PUSH2 0x7C4 DUP2 DUP6 PUSH2 0xBA0 JUMP JUMPDEST SWAP4 POP DUP4 PUSH1 0x20 DUP3 MUL DUP6 ADD PUSH2 0x7D6 DUP6 PUSH2 0xB6D JUMP JUMPDEST DUP1 PUSH1 0x0 JUMPDEST DUP6 DUP2 LT ISZERO PUSH2 0x812 JUMPI DUP5 DUP5 SUB DUP10 MSTORE DUP2 MLOAD PUSH2 0x7F3 DUP6 DUP3 PUSH2 0x78C JUMP JUMPDEST SWAP5 POP PUSH2 0x7FE DUP4 PUSH2 0xB93 JUMP JUMPDEST SWAP3 POP PUSH1 0x20 DUP11 ADD SWAP10 POP POP PUSH1 0x1 DUP2 ADD SWAP1 POP PUSH2 0x7DA JUMP JUMPDEST POP DUP3 SWAP8 POP DUP8 SWAP6 POP POP POP POP POP POP SWAP3 SWAP2 POP POP JUMP JUMPDEST PUSH1 0x0 PUSH2 0x82F DUP3 PUSH2 0xB88 JUMP JUMPDEST PUSH2 0x839 DUP2 DUP6 PUSH2 0xBBC JUMP JUMPDEST SWAP4 POP PUSH2 0x849 DUP2 DUP6 PUSH1 0x20 DUP7 ADD PUSH2 0xC7F JUMP JUMPDEST PUSH2 0x852 DUP2 PUSH2 0xD71 JUMP JUMPDEST DUP5 ADD SWAP2 POP POP SWAP3 SWAP2 POP POP JUMP JUMPDEST PUSH1 0x0 PUSH2 0x868 DUP3 PUSH2 0xB88 JUMP JUMPDEST PUSH2 0x872 DUP2 DUP6 PUSH2 0xBCD JUMP JUMPDEST SWAP4 POP PUSH2 0x882 DUP2 DUP6 PUSH1 0x20 DUP7 ADD PUSH2 0xC7F JUMP JUMPDEST PUSH2 0x88B DUP2 PUSH2 0xD71 JUMP JUMPDEST DUP5 ADD SWAP2 POP POP SWAP3 SWAP2 POP POP JUMP JUMPDEST PUSH1 0x0 PUSH2 0x8A3 PUSH1 0x34 DUP4 PUSH2 0xBCD JUMP JUMPDEST SWAP2 POP PUSH32 0x547279696E6720746F207769746864726177206D6F7265206D6F6E6579207468 PUSH1 0x0 DUP4 ADD MSTORE PUSH32 0x616E2074686520636F6E7472616374206861732E000000000000000000000000 PUSH1 0x20 DUP4 ADD MSTORE PUSH1 0x40 DUP3 ADD SWAP1 POP SWAP2 SWAP1 POP JUMP JUMPDEST PUSH1 0x0 PUSH2 0x909 PUSH1 0x27 DUP4 PUSH2 0xBCD JUMP JUMPDEST SWAP2 POP PUSH32 0x4661696C656420746F207769746864726177206D6F6E65792066726F6D20636F PUSH1 0x0 DUP4 ADD MSTORE PUSH32 0x6E74726163742E00000000000000000000000000000000000000000000000000 PUSH1 0x20 DUP4 ADD MSTORE PUSH1 0x40 DUP3 ADD SWAP1 POP SWAP2 SWAP1 POP JUMP JUMPDEST PUSH1 0x0 PUSH2 0x96F PUSH1 0x0 DUP4 PUSH2 0xBB1 JUMP JUMPDEST SWAP2 POP PUSH1 0x0 DUP3 ADD SWAP1 POP SWAP2 SWAP1 POP JUMP JUMPDEST PUSH1 0x0 PUSH2 0x989 PUSH1 0x8 DUP4 PUSH2 0xBCD JUMP JUMPDEST SWAP2 POP PUSH32 0x576169742031356D000000000000000000000000000000000000000000000000 PUSH1 0x0 DUP4 ADD MSTORE PUSH1 0x20 DUP3 ADD SWAP1 POP SWAP2 SWAP1 POP JUMP JUMPDEST PUSH1 0x0 PUSH1 0x60 DUP4 ADD PUSH1 0x0 DUP4 ADD MLOAD PUSH2 0x9D4 PUSH1 0x0 DUP7 ADD DUP3 PUSH2 0x7A0 JUMP JUMPDEST POP PUSH1 0x20 DUP4 ADD MLOAD DUP5 DUP3 SUB PUSH1 0x20 DUP7 ADD MSTORE PUSH2 0x9EC DUP3 DUP3 PUSH2 0x824 JUMP JUMPDEST SWAP2 POP POP PUSH1 0x40 DUP4 ADD MLOAD PUSH2 0xA01 PUSH1 0x40 DUP7 ADD DUP3 PUSH2 0xA0C JUMP JUMPDEST POP DUP1 SWAP2 POP POP SWAP3 SWAP2 POP POP JUMP JUMPDEST PUSH2 0xA15 DUP2 PUSH2 0xC66 JUMP JUMPDEST DUP3 MSTORE POP POP JUMP JUMPDEST PUSH2 0xA24 DUP2 PUSH2 0xC66 JUMP JUMPDEST DUP3 MSTORE POP POP JUMP JUMPDEST PUSH1 0x0 PUSH2 0xA35 DUP3 PUSH2 0x962 JUMP JUMPDEST SWAP2 POP DUP2 SWAP1 POP SWAP2 SWAP1 POP JUMP JUMPDEST PUSH1 0x0 PUSH1 0x20 DUP3 ADD SWAP1 POP DUP2 DUP2 SUB PUSH1 0x0 DUP4 ADD MSTORE PUSH2 0xA59 DUP2 DUP5 PUSH2 0x7AF JUMP JUMPDEST SWAP1 POP SWAP3 SWAP2 POP POP JUMP JUMPDEST PUSH1 0x0 PUSH1 0x20 DUP3 ADD SWAP1 POP DUP2 DUP2 SUB PUSH1 0x0 DUP4 ADD MSTORE PUSH2 0xA7A DUP2 PUSH2 0x896 JUMP JUMPDEST SWAP1 POP SWAP2 SWAP1 POP JUMP JUMPDEST PUSH1 0x0 PUSH1 0x20 DUP3 ADD SWAP1 POP DUP2 DUP2 SUB PUSH1 0x0 DUP4 ADD MSTORE PUSH2 0xA9A DUP2 PUSH2 0x8FC JUMP JUMPDEST SWAP1 POP SWAP2 SWAP1 POP JUMP JUMPDEST PUSH1 0x0 PUSH1 0x20 DUP3 ADD SWAP1 POP DUP2 DUP2 SUB PUSH1 0x0 DUP4 ADD MSTORE PUSH2 0xABA DUP2 PUSH2 0x97C JUMP JUMPDEST SWAP1 POP SWAP2 SWAP1 POP JUMP JUMPDEST PUSH1 0x0 PUSH1 0x20 DUP3 ADD SWAP1 POP PUSH2 0xAD6 PUSH1 0x0 DUP4 ADD DUP5 PUSH2 0xA1B JUMP JUMPDEST SWAP3 SWAP2 POP POP JUMP JUMPDEST PUSH1 0x0 PUSH1 0x40 DUP3 ADD SWAP1 POP PUSH2 0xAF1 PUSH1 0x0 DUP4 ADD DUP6 PUSH2 0xA1B JUMP JUMPDEST DUP2 DUP2 SUB PUSH1 0x20 DUP4 ADD MSTORE PUSH2 0xB03 DUP2 DUP5 PUSH2 0x85D JUMP JUMPDEST SWAP1 POP SWAP4 SWAP3 POP POP POP JUMP JUMPDEST PUSH1 0x0 PUSH1 0x40 MLOAD SWAP1 POP DUP2 DUP2 ADD DUP2 DUP2 LT PUSH8 0xFFFFFFFFFFFFFFFF DUP3 GT OR ISZERO PUSH2 0xB33 JUMPI PUSH2 0xB32 PUSH2 0xD42 JUMP JUMPDEST JUMPDEST DUP1 PUSH1 0x40 MSTORE POP SWAP2 SWAP1 POP JUMP JUMPDEST PUSH1 0x0 PUSH8 0xFFFFFFFFFFFFFFFF DUP3 GT ISZERO PUSH2 0xB58 JUMPI PUSH2 0xB57 PUSH2 0xD42 JUMP JUMPDEST JUMPDEST PUSH1 0x1F NOT PUSH1 0x1F DUP4 ADD AND SWAP1 POP PUSH1 0x20 DUP2 ADD SWAP1 POP SWAP2 SWAP1 POP JUMP JUMPDEST PUSH1 0x0 DUP2 SWAP1 POP PUSH1 0x20 DUP3 ADD SWAP1 POP SWAP2 SWAP1 POP JUMP JUMPDEST PUSH1 0x0 DUP2 MLOAD SWAP1 POP SWAP2 SWAP1 POP JUMP JUMPDEST PUSH1 0x0 DUP2 MLOAD SWAP1 POP SWAP2 SWAP1 POP JUMP JUMPDEST PUSH1 0x0 PUSH1 0x20 DUP3 ADD SWAP1 POP SWAP2 SWAP1 POP JUMP JUMPDEST PUSH1 0x0 DUP3 DUP3 MSTORE PUSH1 0x20 DUP3 ADD SWAP1 POP SWAP3 SWAP2 POP POP JUMP JUMPDEST PUSH1 0x0 DUP2 SWAP1 POP SWAP3 SWAP2 POP POP JUMP JUMPDEST PUSH1 0x0 DUP3 DUP3 MSTORE PUSH1 0x20 DUP3 ADD SWAP1 POP SWAP3 SWAP2 POP POP JUMP JUMPDEST PUSH1 0x0 DUP3 DUP3 MSTORE PUSH1 0x20 DUP3 ADD SWAP1 POP SWAP3 SWAP2 POP POP JUMP JUMPDEST PUSH1 0x0 PUSH2 0xBE9 DUP3 PUSH2 0xC66 JUMP JUMPDEST SWAP2 POP PUSH2 0xBF4 DUP4 PUSH2 0xC66 JUMP JUMPDEST SWAP3 POP DUP3 PUSH32 0xFFFFFFFFFFFFFFFFFFFFFFFFFFFFFFFFFFFFFFFFFFFFFFFFFFFFFFFFFFFFFFFF SUB DUP3 GT ISZERO PUSH2 0xC29 JUMPI PUSH2 0xC28 PUSH2 0xCE4 JUMP JUMPDEST JUMPDEST DUP3 DUP3 ADD SWAP1 POP SWAP3 SWAP2 POP POP JUMP JUMPDEST PUSH1 0x0 PUSH2 0xC3F DUP3 PUSH2 0xC46 JUMP JUMPDEST SWAP1 POP SWAP2 SWAP1 POP JUMP JUMPDEST PUSH1 0x0 PUSH20 0xFFFFFFFFFFFFFFFFFFFFFFFFFFFFFFFFFFFFFFFF DUP3 AND SWAP1 POP SWAP2 SWAP1 POP JUMP JUMPDEST PUSH1 0x0 DUP2 SWAP1 POP SWAP2 SWAP1 POP JUMP JUMPDEST DUP3 DUP2 DUP4 CALLDATACOPY PUSH1 0x0 DUP4 DUP4 ADD MSTORE POP POP POP JUMP JUMPDEST PUSH1 0x0 JUMPDEST DUP4 DUP2 LT ISZERO PUSH2 0xC9D JUMPI DUP1 DUP3 ADD MLOAD DUP2 DUP5 ADD MSTORE PUSH1 0x20 DUP2 ADD SWAP1 POP PUSH2 0xC82 JUMP JUMPDEST DUP4 DUP2 GT ISZERO PUSH2 0xCAC JUMPI PUSH1 0x0 DUP5 DUP5 ADD MSTORE JUMPDEST POP POP POP POP JUMP JUMPDEST PUSH1 0x0 PUSH1 0x2 DUP3 DIV SWAP1 POP PUSH1 0x1 DUP3 AND DUP1 PUSH2 0xCCA JUMPI PUSH1 0x7F DUP3 AND SWAP2 POP JUMPDEST PUSH1 0x20 DUP3 LT DUP2 EQ ISZERO PUSH2 0xCDE JUMPI PUSH2 0xCDD PUSH2 0xD13 JUMP JUMPDEST JUMPDEST POP SWAP2 SWAP1 POP JUMP JUMPDEST PUSH32 0x4E487B7100000000000000000000000000000000000000000000000000000000 PUSH1 0x0 MSTORE PUSH1 0x11 PUSH1 0x4 MSTORE PUSH1 0x24 PUSH1 0x0 REVERT JUMPDEST PUSH32 0x4E487B7100000000000000000000000000000000000000000000000000000000 PUSH1 0x0 MSTORE PUSH1 0x22 PUSH1 0x4 MSTORE PUSH1 0x24 PUSH1 0x0 REVERT JUMPDEST PUSH32 0x4E487B7100000000000000000000000000000000000000000000000000000000 PUSH1 0x0 MSTORE PUSH1 0x41 PUSH1 0x4 MSTORE PUSH1 0x24 PUSH1 0x0 REVERT JUMPDEST PUSH1 0x0 PUSH1 0x1F NOT PUSH1 0x1F DUP4 ADD AND SWAP1 POP SWAP2 SWAP1 POP JUMP JUMPDEST PUSH2 0xD8B DUP2 PUSH2 0xC34 JUMP JUMPDEST DUP2 EQ PUSH2 0xD96 JUMPI PUSH1 0x0 DUP1 REVERT JUMPDEST POP JUMP INVALID LOG2 PUSH5 0x6970667358 0x22 SLT KECCAK256 0x4B DUP5 EQ SELFBALANCE KECCAK256 PUSH15 0x15267ACE634693A18CB9D15DB363B2 RETURNDATASIZE 0xDF CALLDATALOAD 0xCF 0xB5 SWAP5 0xD4 BLOCKHASH PUSH9 0xC8D264736F6C634300 ADDMOD STOP STOP CALLER "
        },
        "methodIdentifiers": {
          "getAllHugs()": "677f0c21",
          "getLastHugged()": "cd9a93e4",
          "getTotalHugs()": "42220881",
          "hugMe(string)": "23dcc61b",
          "lastWavedAt(address)": "a42a4663"
        }
      }
    }
  }
}