{
  "_format": "hh-sol-artifact-1",
  "contractName": "ETHFaucetDemo",
  "sourceName": "contracts/ETHFaucet.sol",
  "abi": [
    {
      "inputs": [],
      "stateMutability": "payable",
      "type": "constructor"
    },
    {
      "anonymous": false,
      "inputs": [
        {
          "indexed": true,
          "internalType": "address",
          "name": "from",
          "type": "address"
        },
        {
          "indexed": false,
          "internalType": "uint256",
          "name": "timestamp",
          "type": "uint256"
        }
      ],
      "name": "NewTx",
      "type": "event"
    },
    {
      "inputs": [],
      "name": "getSentTime",
      "outputs": [
        {
          "internalType": "uint256",
          "name": "",
          "type": "uint256"
        }
      ],
      "stateMutability": "view",
      "type": "function"
    },
    {
      "inputs": [],
      "name": "getTotalTxs",
      "outputs": [
        {
          "internalType": "uint256",
          "name": "",
          "type": "uint256"
        }
      ],
      "stateMutability": "view",
      "type": "function"
    },
    {
      "inputs": [
        {
          "internalType": "address",
          "name": "",
          "type": "address"
        }
      ],
      "name": "lastSentTime",
      "outputs": [
        {
          "internalType": "uint256",
          "name": "",
          "type": "uint256"
        }
      ],
      "stateMutability": "view",
      "type": "function"
    },
    {
      "inputs": [
        {
          "internalType": "uint256",
          "name": "_amount",
          "type": "uint256"
        }
      ],
      "name": "sendETHFromFaucet",
      "outputs": [],
      "stateMutability": "nonpayable",
      "type": "function"
    },
    {
      "stateMutability": "payable",
      "type": "receive"
    }
  ],
  "bytecode": "0x6080604052610792806100136000396000f3fe6080604052600436106100435760003560e01c8063265317221461004f5780636d47c78614610078578063cdb4a5f8146100b5578063ffe0bc83146100e05761004a565b3661004a57005b600080fd5b34801561005b57600080fd5b5061007660048036038101906100719190610409565b61010b565b005b34801561008457600080fd5b5061009f600480360381019061009a91906103e0565b61034e565b6040516100ac91906105dc565b60405180910390f35b3480156100c157600080fd5b506100ca610366565b6040516100d791906105dc565b60405180910390f35b3480156100ec57600080fd5b506100f56103ad565b60405161010291906105dc565b60405180910390f35b4262015180600160003373ffffffffffffffffffffffffffffffffffffffff1673ffffffffffffffffffffffffffffffffffffffff1681526020019081526020016000205461015a9190610613565b1061019a576040517f08c379a0000000000000000000000000000000000000000000000000000000008152600401610191906105bc565b60405180910390fd5b42600160003373ffffffffffffffffffffffffffffffffffffffff1673ffffffffffffffffffffffffffffffffffffffff1681526020019081526020016000208190555060016000808282546101f09190610613565b92505081905550670de0b6b3a76400008161020b9190610669565b90503373ffffffffffffffffffffffffffffffffffffffff167fd0796b83dbc1d4108ba72027fcb5b573879ff1ad4dd2689db2d6239075a95bb44260405161025391906105dc565b60405180910390a24781111561029e576040517f08c379a00000000000000000000000000000000000000000000000000000000081526004016102959061057c565b60405180910390fd5b60003373ffffffffffffffffffffffffffffffffffffffff16826040516102c490610567565b60006040518083038185875af1925050503d8060008114610301576040519150601f19603f3d011682016040523d82523d6000602084013e610306565b606091505b505090508061034a576040517f08c379a00000000000000000000000000000000000000000000000000000000081526004016103419061059c565b60405180910390fd5b5050565b60016020528060005260406000206000915090505481565b6000600160003073ffffffffffffffffffffffffffffffffffffffff1673ffffffffffffffffffffffffffffffffffffffff16815260200190815260200160002054905090565b60008054905090565b6000813590506103c58161072e565b92915050565b6000813590506103da81610745565b92915050565b6000602082840312156103f257600080fd5b6000610400848285016103b6565b91505092915050565b60006020828403121561041b57600080fd5b6000610429848285016103cb565b91505092915050565b600061043f603483610602565b91507f547279696e6720746f207769746864726177206d6f7265206d6f6e657920746860008301527f616e2074686520636f6e7472616374206861732e0000000000000000000000006020830152604082019050919050565b60006104a5602783610602565b91507f4661696c656420746f207769746864726177206d6f6e65792066726f6d20636f60008301527f6e74726163742e000000000000000000000000000000000000000000000000006020830152604082019050919050565b600061050b600a83610602565b91507f57616974203120646179000000000000000000000000000000000000000000006000830152602082019050919050565b600061054b6000836105f7565b9150600082019050919050565b610561816106f5565b82525050565b60006105728261053e565b9150819050919050565b6000602082019050818103600083015261059581610432565b9050919050565b600060208201905081810360008301526105b581610498565b9050919050565b600060208201905081810360008301526105d5816104fe565b9050919050565b60006020820190506105f16000830184610558565b92915050565b600081905092915050565b600082825260208201905092915050565b600061061e826106f5565b9150610629836106f5565b9250827fffffffffffffffffffffffffffffffffffffffffffffffffffffffffffffffff0382111561065e5761065d6106ff565b5b828201905092915050565b6000610674826106f5565b915061067f836106f5565b9250817fffffffffffffffffffffffffffffffffffffffffffffffffffffffffffffffff04831182151516156106b8576106b76106ff565b5b828202905092915050565b60006106ce826106d5565b9050919050565b600073ffffffffffffffffffffffffffffffffffffffff82169050919050565b6000819050919050565b7f4e487b7100000000000000000000000000000000000000000000000000000000600052601160045260246000fd5b610737816106c3565b811461074257600080fd5b50565b61074e816106f5565b811461075957600080fd5b5056fea26469706673582212204abc2cac30ef37fa7c2ca467d8bc29a9c371b5def717278b45da952aefa3fca464736f6c63430008000033",
  "linkReferences": {},
  "deployedLinkReferences": {}
}