{
  "_format": "hh-sol-artifact-1",
  "contractName": "ETHFaucetDemo",
  "sourceName": "contracts/ETHFaucet.sol",
  "abi": [
    {
      "inputs": [],
      "stateMutability": "payable",
      "type": "constructor"
    },
    {
      "anonymous": false,
      "inputs": [
        {
          "indexed": true,
          "internalType": "address",
          "name": "from",
          "type": "address"
        },
        {
          "indexed": false,
          "internalType": "uint256",
          "name": "timestamp",
          "type": "uint256"
        }
      ],
      "name": "NewTx",
      "type": "event"
    },
    {
      "inputs": [],
      "name": "getSentTime",
      "outputs": [
        {
          "internalType": "uint256",
          "name": "",
          "type": "uint256"
        }
      ],
      "stateMutability": "view",
      "type": "function"
    },
    {
      "inputs": [],
      "name": "getTotalTxs",
      "outputs": [
        {
          "internalType": "uint256",
          "name": "",
          "type": "uint256"
        }
      ],
      "stateMutability": "view",
      "type": "function"
    },
    {
      "inputs": [
        {
          "internalType": "address",
          "name": "",
          "type": "address"
        }
      ],
      "name": "lastSentTime",
      "outputs": [
        {
          "internalType": "uint256",
          "name": "",
          "type": "uint256"
        }
      ],
      "stateMutability": "view",
      "type": "function"
    },
    {
      "inputs": [
        {
          "internalType": "uint256",
          "name": "_amount",
          "type": "uint256"
        }
      ],
      "name": "sendETHFromFaucet",
      "outputs": [],
      "stateMutability": "nonpayable",
      "type": "function"
    },
    {
      "stateMutability": "payable",
      "type": "receive"
    }
  ],
  "bytecode": "0x6080604052610722806100136000396000f3fe6080604052600436106100435760003560e01c8063265317221461004f5780636d47c78614610078578063cdb4a5f8146100b5578063ffe0bc83146100e05761004a565b3661004a57005b600080fd5b34801561005b57600080fd5b50610076600480360381019061007191906103f3565b61010b565b005b34801561008457600080fd5b5061009f600480360381019061009a91906103ca565b610338565b6040516100ac91906105c6565b60405180910390f35b3480156100c157600080fd5b506100ca610350565b6040516100d791906105c6565b60405180910390f35b3480156100ec57600080fd5b506100f5610397565b60405161010291906105c6565b60405180910390f35b4262015180600160003373ffffffffffffffffffffffffffffffffffffffff1673ffffffffffffffffffffffffffffffffffffffff1681526020019081526020016000205461015a91906105fd565b1061019a576040517f08c379a0000000000000000000000000000000000000000000000000000000008152600401610191906105a6565b60405180910390fd5b42600160003373ffffffffffffffffffffffffffffffffffffffff1673ffffffffffffffffffffffffffffffffffffffff1681526020019081526020016000208190555060016000808282546101f091906105fd565b925050819055503373ffffffffffffffffffffffffffffffffffffffff167fd0796b83dbc1d4108ba72027fcb5b573879ff1ad4dd2689db2d6239075a95bb44260405161023d91906105c6565b60405180910390a247811115610288576040517f08c379a000000000000000000000000000000000000000000000000000000000815260040161027f90610566565b60405180910390fd5b60003373ffffffffffffffffffffffffffffffffffffffff16826040516102ae90610551565b60006040518083038185875af1925050503d80600081146102eb576040519150601f19603f3d011682016040523d82523d6000602084013e6102f0565b606091505b5050905080610334576040517f08c379a000000000000000000000000000000000000000000000000000000000815260040161032b90610586565b60405180910390fd5b5050565b60016020528060005260406000206000915090505481565b6000600160003073ffffffffffffffffffffffffffffffffffffffff1673ffffffffffffffffffffffffffffffffffffffff16815260200190815260200160002054905090565b60008054905090565b6000813590506103af816106be565b92915050565b6000813590506103c4816106d5565b92915050565b6000602082840312156103dc57600080fd5b60006103ea848285016103a0565b91505092915050565b60006020828403121561040557600080fd5b6000610413848285016103b5565b91505092915050565b60006104296034836105ec565b91507f547279696e6720746f207769746864726177206d6f7265206d6f6e657920746860008301527f616e2074686520636f6e7472616374206861732e0000000000000000000000006020830152604082019050919050565b600061048f6027836105ec565b91507f4661696c656420746f207769746864726177206d6f6e65792066726f6d20636f60008301527f6e74726163742e000000000000000000000000000000000000000000000000006020830152604082019050919050565b60006104f5600a836105ec565b91507f57616974203120646179000000000000000000000000000000000000000000006000830152602082019050919050565b60006105356000836105e1565b9150600082019050919050565b61054b81610685565b82525050565b600061055c82610528565b9150819050919050565b6000602082019050818103600083015261057f8161041c565b9050919050565b6000602082019050818103600083015261059f81610482565b9050919050565b600060208201905081810360008301526105bf816104e8565b9050919050565b60006020820190506105db6000830184610542565b92915050565b600081905092915050565b600082825260208201905092915050565b600061060882610685565b915061061383610685565b9250827fffffffffffffffffffffffffffffffffffffffffffffffffffffffffffffffff038211156106485761064761068f565b5b828201905092915050565b600061065e82610665565b9050919050565b600073ffffffffffffffffffffffffffffffffffffffff82169050919050565b6000819050919050565b7f4e487b7100000000000000000000000000000000000000000000000000000000600052601160045260246000fd5b6106c781610653565b81146106d257600080fd5b50565b6106de81610685565b81146106e957600080fd5b5056fea264697066735822122038a0eb0844a3d601d163821293914ff25642ce0533897b9c9d59883bf07f947c64736f6c63430008000033",
  "linkReferences": {},
  "deployedLinkReferences": {}
}