{
  "_format": "hh-sol-artifact-1",
  "contractName": "JokerTestToken",
  "sourceName": "contracts/JokerTestToken.sol",
  "abi": [
    {
      "inputs": [],
      "stateMutability": "nonpayable",
      "type": "constructor"
    },
    {
      "anonymous": false,
      "inputs": [
        {
          "indexed": true,
          "internalType": "address",
          "name": "owner",
          "type": "address"
        },
        {
          "indexed": true,
          "internalType": "address",
          "name": "spender",
          "type": "address"
        },
        {
          "indexed": false,
          "internalType": "uint256",
          "name": "value",
          "type": "uint256"
        }
      ],
      "name": "Approval",
      "type": "event"
    },
    {
      "anonymous": false,
      "inputs": [
        {
          "indexed": true,
          "internalType": "address",
          "name": "from",
          "type": "address"
        },
        {
          "indexed": true,
          "internalType": "address",
          "name": "to",
          "type": "address"
        },
        {
          "indexed": false,
          "internalType": "uint256",
          "name": "value",
          "type": "uint256"
        }
      ],
      "name": "Transfer",
      "type": "event"
    },
    {
      "inputs": [],
      "name": "admin",
      "outputs": [
        {
          "internalType": "address",
          "name": "",
          "type": "address"
        }
      ],
      "stateMutability": "view",
      "type": "function"
    },
    {
      "inputs": [
        {
          "internalType": "address",
          "name": "owner",
          "type": "address"
        },
        {
          "internalType": "address",
          "name": "spender",
          "type": "address"
        }
      ],
      "name": "allowance",
      "outputs": [
        {
          "internalType": "uint256",
          "name": "",
          "type": "uint256"
        }
      ],
      "stateMutability": "view",
      "type": "function"
    },
    {
      "inputs": [
        {
          "internalType": "address",
          "name": "spender",
          "type": "address"
        },
        {
          "internalType": "uint256",
          "name": "amount",
          "type": "uint256"
        }
      ],
      "name": "approve",
      "outputs": [
        {
          "internalType": "bool",
          "name": "",
          "type": "bool"
        }
      ],
      "stateMutability": "nonpayable",
      "type": "function"
    },
    {
      "inputs": [
        {
          "internalType": "address",
          "name": "account",
          "type": "address"
        }
      ],
      "name": "balanceOf",
      "outputs": [
        {
          "internalType": "uint256",
          "name": "",
          "type": "uint256"
        }
      ],
      "stateMutability": "view",
      "type": "function"
    },
    {
      "inputs": [
        {
          "internalType": "uint256",
          "name": "amount",
          "type": "uint256"
        }
      ],
      "name": "burn",
      "outputs": [],
      "stateMutability": "nonpayable",
      "type": "function"
    },
    {
      "inputs": [],
      "name": "decimals",
      "outputs": [
        {
          "internalType": "uint8",
          "name": "",
          "type": "uint8"
        }
      ],
      "stateMutability": "view",
      "type": "function"
    },
    {
      "inputs": [
        {
          "internalType": "address",
          "name": "spender",
          "type": "address"
        },
        {
          "internalType": "uint256",
          "name": "subtractedValue",
          "type": "uint256"
        }
      ],
      "name": "decreaseAllowance",
      "outputs": [
        {
          "internalType": "bool",
          "name": "",
          "type": "bool"
        }
      ],
      "stateMutability": "nonpayable",
      "type": "function"
    },
    {
      "inputs": [
        {
          "internalType": "address",
          "name": "spender",
          "type": "address"
        },
        {
          "internalType": "uint256",
          "name": "addedValue",
          "type": "uint256"
        }
      ],
      "name": "increaseAllowance",
      "outputs": [
        {
          "internalType": "bool",
          "name": "",
          "type": "bool"
        }
      ],
      "stateMutability": "nonpayable",
      "type": "function"
    },
    {
      "inputs": [
        {
          "internalType": "address",
          "name": "to",
          "type": "address"
        },
        {
          "internalType": "uint256",
          "name": "amount",
          "type": "uint256"
        }
      ],
      "name": "mint",
      "outputs": [],
      "stateMutability": "nonpayable",
      "type": "function"
    },
    {
      "inputs": [],
      "name": "name",
      "outputs": [
        {
          "internalType": "string",
          "name": "",
          "type": "string"
        }
      ],
      "stateMutability": "view",
      "type": "function"
    },
    {
      "inputs": [],
      "name": "symbol",
      "outputs": [
        {
          "internalType": "string",
          "name": "",
          "type": "string"
        }
      ],
      "stateMutability": "view",
      "type": "function"
    },
    {
      "inputs": [],
      "name": "totalSupply",
      "outputs": [
        {
          "internalType": "uint256",
          "name": "",
          "type": "uint256"
        }
      ],
      "stateMutability": "view",
      "type": "function"
    },
    {
      "inputs": [
        {
          "internalType": "address",
          "name": "to",
          "type": "address"
        },
        {
          "internalType": "uint256",
          "name": "amount",
          "type": "uint256"
        }
      ],
      "name": "transfer",
      "outputs": [
        {
          "internalType": "bool",
          "name": "",
          "type": "bool"
        }
      ],
      "stateMutability": "nonpayable",
      "type": "function"
    },
    {
      "inputs": [
        {
          "internalType": "address",
          "name": "from",
          "type": "address"
        },
        {
          "internalType": "address",
          "name": "to",
          "type": "address"
        },
        {
          "internalType": "uint256",
          "name": "amount",
          "type": "uint256"
        }
      ],
      "name": "transferFrom",
      "outputs": [
        {
          "internalType": "bool",
          "name": "",
          "type": "bool"
        }
      ],
      "stateMutability": "nonpayable",
      "type": "function"
    }
  ],
  "bytecode": "0x60806040523480156200001157600080fd5b506040518060400160405280600e81526020017f4a6f6b657254657374546f6b656e0000000000000000000000000000000000008152506040518060400160405280600481526020017f4a4b54540000000000000000000000000000000000000000000000000000000081525081600390805190602001906200009692919062000299565b508060049080519060200190620000af92919062000299565b505050620000cf336a52b7d2dcc80cd2e40000006200011660201b60201c565b33600560006101000a81548173ffffffffffffffffffffffffffffffffffffffff021916908373ffffffffffffffffffffffffffffffffffffffff160217905550620004f5565b600073ffffffffffffffffffffffffffffffffffffffff168273ffffffffffffffffffffffffffffffffffffffff16141562000189576040517f08c379a0000000000000000000000000000000000000000000000000000000008152600401620001809062000381565b60405180910390fd5b6200019d600083836200028f60201b60201c565b8060026000828254620001b19190620003d1565b92505081905550806000808473ffffffffffffffffffffffffffffffffffffffff1673ffffffffffffffffffffffffffffffffffffffff1681526020019081526020016000206000828254620002089190620003d1565b925050819055508173ffffffffffffffffffffffffffffffffffffffff16600073ffffffffffffffffffffffffffffffffffffffff167fddf252ad1be2c89b69c2b068fc378daa952ba7f163c4a11628f55a4df523b3ef836040516200026f9190620003a3565b60405180910390a36200028b600083836200029460201b60201c565b5050565b505050565b505050565b828054620002a79062000438565b90600052602060002090601f016020900481019282620002cb576000855562000317565b82601f10620002e657805160ff191683800117855562000317565b8280016001018555821562000317579182015b8281111562000316578251825591602001919060010190620002f9565b5b5090506200032691906200032a565b5090565b5b80821115620003455760008160009055506001016200032b565b5090565b600062000358601f83620003c0565b91506200036582620004cc565b602082019050919050565b6200037b816200042e565b82525050565b600060208201905081810360008301526200039c8162000349565b9050919050565b6000602082019050620003ba600083018462000370565b92915050565b600082825260208201905092915050565b6000620003de826200042e565b9150620003eb836200042e565b9250827fffffffffffffffffffffffffffffffffffffffffffffffffffffffffffffffff038211156200042357620004226200046e565b5b828201905092915050565b6000819050919050565b600060028204905060018216806200045157607f821691505b602082108114156200046857620004676200049d565b5b50919050565b7f4e487b7100000000000000000000000000000000000000000000000000000000600052601160045260246000fd5b7f4e487b7100000000000000000000000000000000000000000000000000000000600052602260045260246000fd5b7f45524332303a206d696e7420746f20746865207a65726f206164647265737300600082015250565b61198e80620005056000396000f3fe608060405234801561001057600080fd5b50600436106100ea5760003560e01c806342966c681161008c578063a457c2d711610066578063a457c2d71461025f578063a9059cbb1461028f578063dd62ed3e146102bf578063f851a440146102ef576100ea565b806342966c68146101f557806370a082311461021157806395d89b4114610241576100ea565b806323b872dd116100c857806323b872dd1461015b578063313ce5671461018b57806339509351146101a957806340c10f19146101d9576100ea565b806306fdde03146100ef578063095ea7b31461010d57806318160ddd1461013d575b600080fd5b6100f761030d565b60405161010491906112ab565b60405180910390f35b61012760048036038101906101229190611012565b61039f565b6040516101349190611290565b60405180910390f35b6101456103c2565b604051610152919061142d565b60405180910390f35b61017560048036038101906101709190610fbf565b6103cc565b6040516101829190611290565b60405180910390f35b6101936103fb565b6040516101a09190611448565b60405180910390f35b6101c360048036038101906101be9190611012565b610404565b6040516101d09190611290565b60405180910390f35b6101f360048036038101906101ee9190611012565b61043b565b005b61020f600480360381019061020a9190611052565b6104d9565b005b61022b60048036038101906102269190610f52565b6104e6565b604051610238919061142d565b60405180910390f35b61024961052e565b60405161025691906112ab565b60405180910390f35b61027960048036038101906102749190611012565b6105c0565b6040516102869190611290565b60405180910390f35b6102a960048036038101906102a49190611012565b610637565b6040516102b69190611290565b60405180910390f35b6102d960048036038101906102d49190610f7f565b61065a565b6040516102e6919061142d565b60405180910390f35b6102f76106e1565b6040516103049190611275565b60405180910390f35b60606003805461031c90611591565b80601f016020809104026020016040519081016040528092919081815260200182805461034890611591565b80156103955780601f1061036a57610100808354040283529160200191610395565b820191906000526020600020905b81548152906001019060200180831161037857829003601f168201915b5050505050905090565b6000806103aa610707565b90506103b781858561070f565b600191505092915050565b6000600254905090565b6000806103d7610707565b90506103e48582856108da565b6103ef858585610966565b60019150509392505050565b60006012905090565b60008061040f610707565b9050610430818585610421858961065a565b61042b919061147f565b61070f565b600191505092915050565b600560009054906101000a900473ffffffffffffffffffffffffffffffffffffffff1673ffffffffffffffffffffffffffffffffffffffff163373ffffffffffffffffffffffffffffffffffffffff16146104cb576040517f08c379a00000000000000000000000000000000000000000000000000000000081526004016104c29061136d565b60405180910390fd5b6104d58282610be7565b5050565b6104e33382610d47565b50565b60008060008373ffffffffffffffffffffffffffffffffffffffff1673ffffffffffffffffffffffffffffffffffffffff168152602001908152602001600020549050919050565b60606004805461053d90611591565b80601f016020809104026020016040519081016040528092919081815260200182805461056990611591565b80156105b65780601f1061058b576101008083540402835291602001916105b6565b820191906000526020600020905b81548152906001019060200180831161059957829003601f168201915b5050505050905090565b6000806105cb610707565b905060006105d9828661065a565b90508381101561061e576040517f08c379a0000000000000000000000000000000000000000000000000000000008152600401610615906113ed565b60405180910390fd5b61062b828686840361070f565b60019250505092915050565b600080610642610707565b905061064f818585610966565b600191505092915050565b6000600160008473ffffffffffffffffffffffffffffffffffffffff1673ffffffffffffffffffffffffffffffffffffffff16815260200190815260200160002060008373ffffffffffffffffffffffffffffffffffffffff1673ffffffffffffffffffffffffffffffffffffffff16815260200190815260200160002054905092915050565b600560009054906101000a900473ffffffffffffffffffffffffffffffffffffffff1681565b600033905090565b600073ffffffffffffffffffffffffffffffffffffffff168373ffffffffffffffffffffffffffffffffffffffff16141561077f576040517f08c379a0000000000000000000000000000000000000000000000000000000008152600401610776906113cd565b60405180910390fd5b600073ffffffffffffffffffffffffffffffffffffffff168273ffffffffffffffffffffffffffffffffffffffff1614156107ef576040517f08c379a00000000000000000000000000000000000000000000000000000000081526004016107e69061130d565b60405180910390fd5b80600160008573ffffffffffffffffffffffffffffffffffffffff1673ffffffffffffffffffffffffffffffffffffffff16815260200190815260200160002060008473ffffffffffffffffffffffffffffffffffffffff1673ffffffffffffffffffffffffffffffffffffffff168152602001908152602001600020819055508173ffffffffffffffffffffffffffffffffffffffff168373ffffffffffffffffffffffffffffffffffffffff167f8c5be1e5ebec7d5bd14f71427d1e84f3dd0314c0f7b2291e5b200ac8c7c3b925836040516108cd919061142d565b60405180910390a3505050565b60006108e6848461065a565b90507fffffffffffffffffffffffffffffffffffffffffffffffffffffffffffffffff81146109605781811015610952576040517f08c379a00000000000000000000000000000000000000000000000000000000081526004016109499061132d565b60405180910390fd5b61095f848484840361070f565b5b50505050565b600073ffffffffffffffffffffffffffffffffffffffff168373ffffffffffffffffffffffffffffffffffffffff1614156109d6576040517f08c379a00000000000000000000000000000000000000000000000000000000081526004016109cd906113ad565b60405180910390fd5b600073ffffffffffffffffffffffffffffffffffffffff168273ffffffffffffffffffffffffffffffffffffffff161415610a46576040517f08c379a0000000000000000000000000000000000000000000000000000000008152600401610a3d906112cd565b60405180910390fd5b610a51838383610f1e565b60008060008573ffffffffffffffffffffffffffffffffffffffff1673ffffffffffffffffffffffffffffffffffffffff16815260200190815260200160002054905081811015610ad7576040517f08c379a0000000000000000000000000000000000000000000000000000000008152600401610ace9061134d565b60405180910390fd5b8181036000808673ffffffffffffffffffffffffffffffffffffffff1673ffffffffffffffffffffffffffffffffffffffff16815260200190815260200160002081905550816000808573ffffffffffffffffffffffffffffffffffffffff1673ffffffffffffffffffffffffffffffffffffffff1681526020019081526020016000206000828254610b6a919061147f565b925050819055508273ffffffffffffffffffffffffffffffffffffffff168473ffffffffffffffffffffffffffffffffffffffff167fddf252ad1be2c89b69c2b068fc378daa952ba7f163c4a11628f55a4df523b3ef84604051610bce919061142d565b60405180910390a3610be1848484610f23565b50505050565b600073ffffffffffffffffffffffffffffffffffffffff168273ffffffffffffffffffffffffffffffffffffffff161415610c57576040517f08c379a0000000000000000000000000000000000000000000000000000000008152600401610c4e9061140d565b60405180910390fd5b610c6360008383610f1e565b8060026000828254610c75919061147f565b92505081905550806000808473ffffffffffffffffffffffffffffffffffffffff1673ffffffffffffffffffffffffffffffffffffffff1681526020019081526020016000206000828254610cca919061147f565b925050819055508173ffffffffffffffffffffffffffffffffffffffff16600073ffffffffffffffffffffffffffffffffffffffff167fddf252ad1be2c89b69c2b068fc378daa952ba7f163c4a11628f55a4df523b3ef83604051610d2f919061142d565b60405180910390a3610d4360008383610f23565b5050565b600073ffffffffffffffffffffffffffffffffffffffff168273ffffffffffffffffffffffffffffffffffffffff161415610db7576040517f08c379a0000000000000000000000000000000000000000000000000000000008152600401610dae9061138d565b60405180910390fd5b610dc382600083610f1e565b60008060008473ffffffffffffffffffffffffffffffffffffffff1673ffffffffffffffffffffffffffffffffffffffff16815260200190815260200160002054905081811015610e49576040517f08c379a0000000000000000000000000000000000000000000000000000000008152600401610e40906112ed565b60405180910390fd5b8181036000808573ffffffffffffffffffffffffffffffffffffffff1673ffffffffffffffffffffffffffffffffffffffff168152602001908152602001600020819055508160026000828254610ea091906114d5565b92505081905550600073ffffffffffffffffffffffffffffffffffffffff168373ffffffffffffffffffffffffffffffffffffffff167fddf252ad1be2c89b69c2b068fc378daa952ba7f163c4a11628f55a4df523b3ef84604051610f05919061142d565b60405180910390a3610f1983600084610f23565b505050565b505050565b505050565b600081359050610f378161192a565b92915050565b600081359050610f4c81611941565b92915050565b600060208284031215610f6857610f67611621565b5b6000610f7684828501610f28565b91505092915050565b60008060408385031215610f9657610f95611621565b5b6000610fa485828601610f28565b9250506020610fb585828601610f28565b9150509250929050565b600080600060608486031215610fd857610fd7611621565b5b6000610fe686828701610f28565b9350506020610ff786828701610f28565b925050604061100886828701610f3d565b9150509250925092565b6000806040838503121561102957611028611621565b5b600061103785828601610f28565b925050602061104885828601610f3d565b9150509250929050565b60006020828403121561106857611067611621565b5b600061107684828501610f3d565b91505092915050565b61108881611509565b82525050565b6110978161151b565b82525050565b60006110a882611463565b6110b2818561146e565b93506110c281856020860161155e565b6110cb81611626565b840191505092915050565b60006110e360238361146e565b91506110ee82611637565b604082019050919050565b600061110660228361146e565b915061111182611686565b604082019050919050565b600061112960228361146e565b9150611134826116d5565b604082019050919050565b600061114c601d8361146e565b915061115782611724565b602082019050919050565b600061116f60268361146e565b915061117a8261174d565b604082019050919050565b6000611192600a8361146e565b915061119d8261179c565b602082019050919050565b60006111b560218361146e565b91506111c0826117c5565b604082019050919050565b60006111d860258361146e565b91506111e382611814565b604082019050919050565b60006111fb60248361146e565b915061120682611863565b604082019050919050565b600061121e60258361146e565b9150611229826118b2565b604082019050919050565b6000611241601f8361146e565b915061124c82611901565b602082019050919050565b61126081611547565b82525050565b61126f81611551565b82525050565b600060208201905061128a600083018461107f565b92915050565b60006020820190506112a5600083018461108e565b92915050565b600060208201905081810360008301526112c5818461109d565b905092915050565b600060208201905081810360008301526112e6816110d6565b9050919050565b60006020820190508181036000830152611306816110f9565b9050919050565b600060208201905081810360008301526113268161111c565b9050919050565b600060208201905081810360008301526113468161113f565b9050919050565b6000602082019050818103600083015261136681611162565b9050919050565b6000602082019050818103600083015261138681611185565b9050919050565b600060208201905081810360008301526113a6816111a8565b9050919050565b600060208201905081810360008301526113c6816111cb565b9050919050565b600060208201905081810360008301526113e6816111ee565b9050919050565b6000602082019050818103600083015261140681611211565b9050919050565b6000602082019050818103600083015261142681611234565b9050919050565b60006020820190506114426000830184611257565b92915050565b600060208201905061145d6000830184611266565b92915050565b600081519050919050565b600082825260208201905092915050565b600061148a82611547565b915061149583611547565b9250827fffffffffffffffffffffffffffffffffffffffffffffffffffffffffffffffff038211156114ca576114c96115c3565b5b828201905092915050565b60006114e082611547565b91506114eb83611547565b9250828210156114fe576114fd6115c3565b5b828203905092915050565b600061151482611527565b9050919050565b60008115159050919050565b600073ffffffffffffffffffffffffffffffffffffffff82169050919050565b6000819050919050565b600060ff82169050919050565b60005b8381101561157c578082015181840152602081019050611561565b8381111561158b576000848401525b50505050565b600060028204905060018216806115a957607f821691505b602082108114156115bd576115bc6115f2565b5b50919050565b7f4e487b7100000000000000000000000000000000000000000000000000000000600052601160045260246000fd5b7f4e487b7100000000000000000000000000000000000000000000000000000000600052602260045260246000fd5b600080fd5b6000601f19601f8301169050919050565b7f45524332303a207472616e7366657220746f20746865207a65726f206164647260008201527f6573730000000000000000000000000000000000000000000000000000000000602082015250565b7f45524332303a206275726e20616d6f756e7420657863656564732062616c616e60008201527f6365000000000000000000000000000000000000000000000000000000000000602082015250565b7f45524332303a20617070726f766520746f20746865207a65726f20616464726560008201527f7373000000000000000000000000000000000000000000000000000000000000602082015250565b7f45524332303a20696e73756666696369656e7420616c6c6f77616e6365000000600082015250565b7f45524332303a207472616e7366657220616d6f756e742065786365656473206260008201527f616c616e63650000000000000000000000000000000000000000000000000000602082015250565b7f6f6e6c792061646d696e00000000000000000000000000000000000000000000600082015250565b7f45524332303a206275726e2066726f6d20746865207a65726f2061646472657360008201527f7300000000000000000000000000000000000000000000000000000000000000602082015250565b7f45524332303a207472616e736665722066726f6d20746865207a65726f20616460008201527f6472657373000000000000000000000000000000000000000000000000000000602082015250565b7f45524332303a20617070726f76652066726f6d20746865207a65726f2061646460008201527f7265737300000000000000000000000000000000000000000000000000000000602082015250565b7f45524332303a2064656372656173656420616c6c6f77616e63652062656c6f7760008201527f207a65726f000000000000000000000000000000000000000000000000000000602082015250565b7f45524332303a206d696e7420746f20746865207a65726f206164647265737300600082015250565b61193381611509565b811461193e57600080fd5b50565b61194a81611547565b811461195557600080fd5b5056fea2646970667358221220af023a71dadd2cfc92f1b2bf8c41dbc7162e190ff940da99ac11d3fae7b557d564736f6c63430008070033",
  "linkReferences": {},
  "deployedLinkReferences": {}
}