{
  "_format": "hh-sol-artifact-1",
  "contractName": "HugSenderWithMessage",
  "sourceName": "contracts/HugSenderWithMessage.sol",
  "abi": [
    {
      "inputs": [],
      "stateMutability": "nonpayable",
      "type": "constructor"
    },
    {
      "anonymous": false,
      "inputs": [
        {
          "indexed": true,
          "internalType": "address",
          "name": "from",
          "type": "address"
        },
        {
          "indexed": false,
          "internalType": "uint256",
          "name": "timestamp",
          "type": "uint256"
        },
        {
          "indexed": false,
          "internalType": "string",
          "name": "message",
          "type": "string"
        }
      ],
      "name": "NewHug",
      "type": "event"
    },
    {
      "inputs": [],
      "name": "getAllHugs",
      "outputs": [
        {
          "components": [
            {
              "internalType": "address",
              "name": "hugger",
              "type": "address"
            },
            {
              "internalType": "string",
              "name": "message",
              "type": "string"
            },
            {
              "internalType": "uint256",
              "name": "timestamp",
              "type": "uint256"
            }
          ],
          "internalType": "struct HugSenderWithMessage.Hug[]",
          "name": "",
          "type": "tuple[]"
        }
      ],
      "stateMutability": "view",
      "type": "function"
    },
    {
      "inputs": [],
      "name": "getTotalHugs",
      "outputs": [
        {
          "internalType": "uint256",
          "name": "",
          "type": "uint256"
        }
      ],
      "stateMutability": "view",
      "type": "function"
    },
    {
      "inputs": [
        {
          "internalType": "string",
          "name": "_message",
          "type": "string"
        }
      ],
      "name": "hugMe",
      "outputs": [],
      "stateMutability": "nonpayable",
      "type": "function"
    }
  ],
  "bytecode": "0x60806040523480156200001157600080fd5b506200005d6040518060400160405280600f81526020017f53656e64696e6720487567732e2e2e00000000000000000000000000000000008152506200006360201b620003f21760201c565b620001f7565b62000103816040516024016200007a919062000170565b6040516020818303038152906040527f41304fac000000000000000000000000000000000000000000000000000000007bffffffffffffffffffffffffffffffffffffffffffffffffffffffff19166020820180517bffffffffffffffffffffffffffffffffffffffffffffffffffffffff83818316178352505050506200010660201b60201c565b50565b60008151905060006a636f6e736f6c652e6c6f679050602083016000808483855afa5050505050565b60006200013c8262000194565b6200014881856200019f565b93506200015a818560208601620001b0565b6200016581620001e6565b840191505092915050565b600060208201905081810360008301526200018c81846200012f565b905092915050565b600081519050919050565b600082825260208201905092915050565b60005b83811015620001d0578082015181840152602081019050620001b3565b83811115620001e0576000848401525b50505050565b6000601f19601f8301169050919050565b610c4f80620002076000396000f3fe608060405234801561001057600080fd5b50600436106100415760003560e01c806323dcc61b146100465780634222088114610062578063677f0c2114610080575b600080fd5b610060600480360381019061005b91906106f7565b61009e565b005b61006a610215565b6040516100779190610963565b60405180910390f35b610088610260565b60405161009591906108bf565b60405180910390f35b60016000808282546100b09190610a75565b925050819055506100f66040518060400160405280600e81526020017f25732068617320687567676564210000000000000000000000000000000000008152503361048b565b600160405180606001604052803373ffffffffffffffffffffffffffffffffffffffff16815260200183815260200142815250908060018154018082558091505060019003906000526020600020906003020160009091909190915060008201518160000160006101000a81548173ffffffffffffffffffffffffffffffffffffffff021916908373ffffffffffffffffffffffffffffffffffffffff16021790555060208201518160010190805190602001906101b59291906105ec565b506040820151816002015550503373ffffffffffffffffffffffffffffffffffffffff167fa5963c21658af7cb8ea8def690d3353743bf24a79c848dc45252fcb66042f4b1428360405161020a92919061097e565b60405180910390a250565b60006102586040518060400160405280601681526020017f5765206861766520256420746f74616c20687567732100000000000000000000815250600054610527565b600054905090565b60606102a36040518060400160405280601681526020017f5765206861766520256420746f74616c20687567732100000000000000000000815250600054610527565b6001805480602002602001604051908101604052809291908181526020016000905b828210156103e957838290600052602060002090600302016040518060600160405290816000820160009054906101000a900473ffffffffffffffffffffffffffffffffffffffff1673ffffffffffffffffffffffffffffffffffffffff1673ffffffffffffffffffffffffffffffffffffffff16815260200160018201805461034e90610b49565b80601f016020809104026020016040519081016040528092919081815260200182805461037a90610b49565b80156103c75780601f1061039c576101008083540402835291602001916103c7565b820191906000526020600020905b8154815290600101906020018083116103aa57829003601f168201915b50505050508152602001600282015481525050815260200190600101906102c5565b50505050905090565b6104888160405160240161040691906108e1565b6040516020818303038152906040527f41304fac000000000000000000000000000000000000000000000000000000007bffffffffffffffffffffffffffffffffffffffffffffffffffffffff19166020820180517bffffffffffffffffffffffffffffffffffffffffffffffffffffffff83818316178352505050506105c3565b50565b61052382826040516024016104a1929190610903565b6040516020818303038152906040527f319af333000000000000000000000000000000000000000000000000000000007bffffffffffffffffffffffffffffffffffffffffffffffffffffffff19166020820180517bffffffffffffffffffffffffffffffffffffffffffffffffffffffff83818316178352505050506105c3565b5050565b6105bf828260405160240161053d929190610933565b6040516020818303038152906040527f9710a9d0000000000000000000000000000000000000000000000000000000007bffffffffffffffffffffffffffffffffffffffffffffffffffffffff19166020820180517bffffffffffffffffffffffffffffffffffffffffffffffffffffffff83818316178352505050506105c3565b5050565b60008151905060006a636f6e736f6c652e6c6f679050602083016000808483855afa5050505050565b8280546105f890610b49565b90600052602060002090601f01602090048101928261061a5760008555610661565b82601f1061063357805160ff1916838001178555610661565b82800160010185558215610661579182015b82811115610660578251825591602001919060010190610645565b5b50905061066e9190610672565b5090565b5b8082111561068b576000816000905550600101610673565b5090565b60006106a261069d846109df565b6109ae565b9050828152602081018484840111156106ba57600080fd5b6106c5848285610b07565b509392505050565b600082601f8301126106de57600080fd5b81356106ee84826020860161068f565b91505092915050565b60006020828403121561070957600080fd5b600082013567ffffffffffffffff81111561072357600080fd5b61072f848285016106cd565b91505092915050565b60006107448383610851565b905092915050565b61075581610acb565b82525050565b61076481610acb565b82525050565b600061077582610a1f565b61077f8185610a42565b93508360208202850161079185610a0f565b8060005b858110156107cd57848403895281516107ae8582610738565b94506107b983610a35565b925060208a01995050600181019050610795565b50829750879550505050505092915050565b60006107ea82610a2a565b6107f48185610a53565b9350610804818560208601610b16565b61080d81610c08565b840191505092915050565b600061082382610a2a565b61082d8185610a64565b935061083d818560208601610b16565b61084681610c08565b840191505092915050565b6000606083016000830151610869600086018261074c565b506020830151848203602086015261088182826107df565b915050604083015161089660408601826108a1565b508091505092915050565b6108aa81610afd565b82525050565b6108b981610afd565b82525050565b600060208201905081810360008301526108d9818461076a565b905092915050565b600060208201905081810360008301526108fb8184610818565b905092915050565b6000604082019050818103600083015261091d8185610818565b905061092c602083018461075b565b9392505050565b6000604082019050818103600083015261094d8185610818565b905061095c60208301846108b0565b9392505050565b600060208201905061097860008301846108b0565b92915050565b600060408201905061099360008301856108b0565b81810360208301526109a58184610818565b90509392505050565b6000604051905081810181811067ffffffffffffffff821117156109d5576109d4610bd9565b5b8060405250919050565b600067ffffffffffffffff8211156109fa576109f9610bd9565b5b601f19601f8301169050602081019050919050565b6000819050602082019050919050565b600081519050919050565b600081519050919050565b6000602082019050919050565b600082825260208201905092915050565b600082825260208201905092915050565b600082825260208201905092915050565b6000610a8082610afd565b9150610a8b83610afd565b9250827fffffffffffffffffffffffffffffffffffffffffffffffffffffffffffffffff03821115610ac057610abf610b7b565b5b828201905092915050565b6000610ad682610add565b9050919050565b600073ffffffffffffffffffffffffffffffffffffffff82169050919050565b6000819050919050565b82818337600083830152505050565b60005b83811015610b34578082015181840152602081019050610b19565b83811115610b43576000848401525b50505050565b60006002820490506001821680610b6157607f821691505b60208210811415610b7557610b74610baa565b5b50919050565b7f4e487b7100000000000000000000000000000000000000000000000000000000600052601160045260246000fd5b7f4e487b7100000000000000000000000000000000000000000000000000000000600052602260045260246000fd5b7f4e487b7100000000000000000000000000000000000000000000000000000000600052604160045260246000fd5b6000601f19601f830116905091905056fea26469706673582212205de1635043861dda1e8bf91fe983e3014539f40a0d36f9cc749e8472610b0a8364736f6c63430008000033",
  "linkReferences": {},
  "deployedLinkReferences": {}
}