{
  "_format": "hh-sol-artifact-1",
  "contractName": "HugSenderWithGifts",
  "sourceName": "contracts/HugSenderWithGifts.sol",
  "abi": [
    {
      "inputs": [],
      "stateMutability": "payable",
      "type": "constructor"
    },
    {
      "anonymous": false,
      "inputs": [
        {
          "indexed": true,
          "internalType": "address",
          "name": "from",
          "type": "address"
        },
        {
          "indexed": false,
          "internalType": "uint256",
          "name": "timestamp",
          "type": "uint256"
        },
        {
          "indexed": false,
          "internalType": "string",
          "name": "message",
          "type": "string"
        }
      ],
      "name": "NewHug",
      "type": "event"
    },
    {
      "inputs": [],
      "name": "getAllHugs",
      "outputs": [
        {
          "components": [
            {
              "internalType": "address",
              "name": "hugger",
              "type": "address"
            },
            {
              "internalType": "string",
              "name": "message",
              "type": "string"
            },
            {
              "internalType": "uint256",
              "name": "timestamp",
              "type": "uint256"
            }
          ],
          "internalType": "struct HugSenderWithGifts.Hug[]",
          "name": "",
          "type": "tuple[]"
        }
      ],
      "stateMutability": "view",
      "type": "function"
    },
    {
      "inputs": [],
      "name": "getLastHugged",
      "outputs": [
        {
          "internalType": "uint256",
          "name": "",
          "type": "uint256"
        }
      ],
      "stateMutability": "view",
      "type": "function"
    },
    {
      "inputs": [],
      "name": "getTotalHugs",
      "outputs": [
        {
          "internalType": "uint256",
          "name": "",
          "type": "uint256"
        }
      ],
      "stateMutability": "view",
      "type": "function"
    },
    {
      "inputs": [
        {
          "internalType": "string",
          "name": "_message",
          "type": "string"
        }
      ],
      "name": "hugMe",
      "outputs": [],
      "stateMutability": "nonpayable",
      "type": "function"
    },
    {
      "inputs": [
        {
          "internalType": "address",
          "name": "",
          "type": "address"
        }
      ],
      "name": "lastWavedAt",
      "outputs": [
        {
          "internalType": "uint256",
          "name": "",
          "type": "uint256"
        }
      ],
      "stateMutability": "view",
      "type": "function"
    },
    {
      "stateMutability": "payable",
      "type": "receive"
    }
  ],
  "bytecode": "0x6080604052610e4d806100136000396000f3fe60806040526004361061004e5760003560e01c806323dcc61b1461005a5780634222088114610083578063677f0c21146100ae578063a42a4663146100d9578063cd9a93e41461011657610055565b3661005557005b600080fd5b34801561006657600080fd5b50610081600480360381019061007c9190610757565b610141565b005b34801561008f57600080fd5b50610098610449565b6040516100a59190610a3b565b60405180910390f35b3480156100ba57600080fd5b506100c3610452565b6040516100d091906109b9565b60405180910390f35b3480156100e557600080fd5b5061010060048036038101906100fb919061072a565b6105a3565b60405161010d9190610a3b565b60405180910390f35b34801561012257600080fd5b5061012b6105bb565b6040516101389190610a3b565b60405180910390f35b426202a300600260003373ffffffffffffffffffffffffffffffffffffffff1673ffffffffffffffffffffffffffffffffffffffff168152602001908152602001600020546101909190610b4d565b106101d0576040517f08c379a00000000000000000000000000000000000000000000000000000000081526004016101c790610a1b565b60405180910390fd5b42600260003373ffffffffffffffffffffffffffffffffffffffff1673ffffffffffffffffffffffffffffffffffffffff1681526020019081526020016000208190555060016000808282546102269190610b4d565b92505081905550600160405180606001604052803373ffffffffffffffffffffffffffffffffffffffff16815260200183815260200142815250908060018154018082558091505060019003906000526020600020906003020160009091909190915060008201518160000160006101000a81548173ffffffffffffffffffffffffffffffffffffffff021916908373ffffffffffffffffffffffffffffffffffffffff16021790555060208201518160010190805190602001906102ec929190610602565b506040820151816002015550503373ffffffffffffffffffffffffffffffffffffffff167fa5963c21658af7cb8ea8def690d3353743bf24a79c848dc45252fcb66042f4b14283604051610341929190610a56565b60405180910390a2600066038d7ea4c68000905047811115610398576040517f08c379a000000000000000000000000000000000000000000000000000000000815260040161038f906109db565b60405180910390fd5b60003373ffffffffffffffffffffffffffffffffffffffff16826040516103be906109a4565b60006040518083038185875af1925050503d80600081146103fb576040519150601f19603f3d011682016040523d82523d6000602084013e610400565b606091505b5050905080610444576040517f08c379a000000000000000000000000000000000000000000000000000000000815260040161043b906109fb565b60405180910390fd5b505050565b60008054905090565b60606001805480602002602001604051908101604052809291908181526020016000905b8282101561059a57838290600052602060002090600302016040518060600160405290816000820160009054906101000a900473ffffffffffffffffffffffffffffffffffffffff1673ffffffffffffffffffffffffffffffffffffffff1673ffffffffffffffffffffffffffffffffffffffff1681526020016001820180546104ff90610c21565b80601f016020809104026020016040519081016040528092919081815260200182805461052b90610c21565b80156105785780601f1061054d57610100808354040283529160200191610578565b820191906000526020600020905b81548152906001019060200180831161055b57829003601f168201915b5050505050815260200160028201548152505081526020019060010190610476565b50505050905090565b60026020528060005260406000206000915090505481565b6000600260003073ffffffffffffffffffffffffffffffffffffffff1673ffffffffffffffffffffffffffffffffffffffff16815260200190815260200160002054905090565b82805461060e90610c21565b90600052602060002090601f0160209004810192826106305760008555610677565b82601f1061064957805160ff1916838001178555610677565b82800160010185558215610677579182015b8281111561067657825182559160200191906001019061065b565b5b5090506106849190610688565b5090565b5b808211156106a1576000816000905550600101610689565b5090565b60006106b86106b384610aab565b610a86565b9050828152602081018484840111156106d4576106d3610d16565b5b6106df848285610bdf565b509392505050565b6000813590506106f681610e00565b92915050565b600082601f83011261071157610710610d11565b5b81356107218482602086016106a5565b91505092915050565b6000602082840312156107405761073f610d20565b5b600061074e848285016106e7565b91505092915050565b60006020828403121561076d5761076c610d20565b5b600082013567ffffffffffffffff81111561078b5761078a610d1b565b5b610797848285016106fc565b91505092915050565b60006107ac8383610936565b905092915050565b6107bd81610ba3565b82525050565b60006107ce82610aec565b6107d88185610b0f565b9350836020820285016107ea85610adc565b8060005b85811015610826578484038952815161080785826107a0565b945061081283610b02565b925060208a019950506001810190506107ee565b50829750879550505050505092915050565b600061084382610af7565b61084d8185610b2b565b935061085d818560208601610bee565b61086681610d25565b840191505092915050565b600061087c82610af7565b6108868185610b3c565b9350610896818560208601610bee565b61089f81610d25565b840191505092915050565b60006108b7603483610b3c565b91506108c282610d36565b604082019050919050565b60006108da602783610b3c565b91506108e582610d85565b604082019050919050565b60006108fd600083610b20565b915061090882610dd4565b600082019050919050565b6000610920600883610b3c565b915061092b82610dd7565b602082019050919050565b600060608301600083015161094e60008601826107b4565b50602083015184820360208601526109668282610838565b915050604083015161097b6040860182610986565b508091505092915050565b61098f81610bd5565b82525050565b61099e81610bd5565b82525050565b60006109af826108f0565b9150819050919050565b600060208201905081810360008301526109d381846107c3565b905092915050565b600060208201905081810360008301526109f4816108aa565b9050919050565b60006020820190508181036000830152610a14816108cd565b9050919050565b60006020820190508181036000830152610a3481610913565b9050919050565b6000602082019050610a506000830184610995565b92915050565b6000604082019050610a6b6000830185610995565b8181036020830152610a7d8184610871565b90509392505050565b6000610a90610aa1565b9050610a9c8282610c53565b919050565b6000604051905090565b600067ffffffffffffffff821115610ac657610ac5610ce2565b5b610acf82610d25565b9050602081019050919050565b6000819050602082019050919050565b600081519050919050565b600081519050919050565b6000602082019050919050565b600082825260208201905092915050565b600081905092915050565b600082825260208201905092915050565b600082825260208201905092915050565b6000610b5882610bd5565b9150610b6383610bd5565b9250827fffffffffffffffffffffffffffffffffffffffffffffffffffffffffffffffff03821115610b9857610b97610c84565b5b828201905092915050565b6000610bae82610bb5565b9050919050565b600073ffffffffffffffffffffffffffffffffffffffff82169050919050565b6000819050919050565b82818337600083830152505050565b60005b83811015610c0c578082015181840152602081019050610bf1565b83811115610c1b576000848401525b50505050565b60006002820490506001821680610c3957607f821691505b60208210811415610c4d57610c4c610cb3565b5b50919050565b610c5c82610d25565b810181811067ffffffffffffffff82111715610c7b57610c7a610ce2565b5b80604052505050565b7f4e487b7100000000000000000000000000000000000000000000000000000000600052601160045260246000fd5b7f4e487b7100000000000000000000000000000000000000000000000000000000600052602260045260246000fd5b7f4e487b7100000000000000000000000000000000000000000000000000000000600052604160045260246000fd5b600080fd5b600080fd5b600080fd5b600080fd5b6000601f19601f8301169050919050565b7f547279696e6720746f207769746864726177206d6f7265206d6f6e657920746860008201527f616e2074686520636f6e7472616374206861732e000000000000000000000000602082015250565b7f4661696c656420746f207769746864726177206d6f6e65792066726f6d20636f60008201527f6e74726163742e00000000000000000000000000000000000000000000000000602082015250565b50565b7f576169742031356d000000000000000000000000000000000000000000000000600082015250565b610e0981610ba3565b8114610e1457600080fd5b5056fea2646970667358221220aede27d41c6eed496ba66e57e915f2643b7909eed9113b094448aa0200f84e1a64736f6c63430008050033",
  "linkReferences": {},
  "deployedLinkReferences": {}
}