{
  "_format": "hh-sol-artifact-1",
  "contractName": "HugSenderWithGifts",
  "sourceName": "contracts/HugSenderWithGifts.sol",
  "abi": [
    {
      "inputs": [],
      "stateMutability": "payable",
      "type": "constructor"
    },
    {
      "anonymous": false,
      "inputs": [
        {
          "indexed": true,
          "internalType": "address",
          "name": "from",
          "type": "address"
        },
        {
          "indexed": false,
          "internalType": "uint256",
          "name": "timestamp",
          "type": "uint256"
        },
        {
          "indexed": false,
          "internalType": "string",
          "name": "message",
          "type": "string"
        }
      ],
      "name": "NewHug",
      "type": "event"
    },
    {
      "inputs": [],
      "name": "getAllHugs",
      "outputs": [
        {
          "components": [
            {
              "internalType": "address",
              "name": "hugger",
              "type": "address"
            },
            {
              "internalType": "string",
              "name": "message",
              "type": "string"
            },
            {
              "internalType": "uint256",
              "name": "timestamp",
              "type": "uint256"
            }
          ],
          "internalType": "struct HugSenderWithGifts.Hug[]",
          "name": "",
          "type": "tuple[]"
        }
      ],
      "stateMutability": "view",
      "type": "function"
    },
    {
      "inputs": [],
      "name": "getTotalHugs",
      "outputs": [
        {
          "internalType": "uint256",
          "name": "",
          "type": "uint256"
        }
      ],
      "stateMutability": "view",
      "type": "function"
    },
    {
      "inputs": [
        {
          "internalType": "string",
          "name": "_message",
          "type": "string"
        }
      ],
      "name": "hugMe",
      "outputs": [],
      "stateMutability": "nonpayable",
      "type": "function"
    }
  ],
  "bytecode": "0x60806040526200004f6040518060400160405280601981526020017f57652068617665206265656e20636f6e737472756374656421000000000000008152506200005560201b620004ee1760201c565b620001e9565b620000f5816040516024016200006c919062000162565b6040516020818303038152906040527f41304fac000000000000000000000000000000000000000000000000000000007bffffffffffffffffffffffffffffffffffffffffffffffffffffffff19166020820180517bffffffffffffffffffffffffffffffffffffffffffffffffffffffff8381831617835250505050620000f860201b60201c565b50565b60008151905060006a636f6e736f6c652e6c6f679050602083016000808483855afa5050505050565b60006200012e8262000186565b6200013a818562000191565b93506200014c818560208601620001a2565b6200015781620001d8565b840191505092915050565b600060208201905081810360008301526200017e818462000121565b905092915050565b600081519050919050565b600082825260208201905092915050565b60005b83811015620001c2578082015181840152602081019050620001a5565b83811115620001d2576000848401525b50505050565b6000601f19601f8301169050919050565b610e9180620001f96000396000f3fe608060405234801561001057600080fd5b50600436106100415760003560e01c806323dcc61b146100465780634222088114610062578063677f0c2114610080575b600080fd5b610060600480360381019061005b91906107f3565b61009e565b005b61006a610311565b6040516100779190610b9a565b60405180910390f35b61008861035c565b6040516100959190610ab6565b60405180910390f35b60016000808282546100b09190610cb7565b925050819055506100f66040518060400160405280600e81526020017f257320686173206875676765642100000000000000000000000000000000000081525033610587565b600160405180606001604052803373ffffffffffffffffffffffffffffffffffffffff16815260200183815260200142815250908060018154018082558091505060019003906000526020600020906003020160009091909190915060008201518160000160006101000a81548173ffffffffffffffffffffffffffffffffffffffff021916908373ffffffffffffffffffffffffffffffffffffffff16021790555060208201518160010190805190602001906101b59291906106e8565b506040820151816002015550503373ffffffffffffffffffffffffffffffffffffffff167fa5963c21658af7cb8ea8def690d3353743bf24a79c848dc45252fcb66042f4b1428360405161020a929190610bb5565b60405180910390a260006509184e72a000905047811115610260576040517f08c379a000000000000000000000000000000000000000000000000000000000815260040161025790610b5a565b60405180910390fd5b60003373ffffffffffffffffffffffffffffffffffffffff168260405161028690610aa1565b60006040518083038185875af1925050503d80600081146102c3576040519150601f19603f3d011682016040523d82523d6000602084013e6102c8565b606091505b505090508061030c576040517f08c379a000000000000000000000000000000000000000000000000000000000815260040161030390610b7a565b60405180910390fd5b505050565b60006103546040518060400160405280601681526020017f5765206861766520256420746f74616c20687567732100000000000000000000815250600054610623565b600054905090565b606061039f6040518060400160405280601681526020017f5765206861766520256420746f74616c20687567732100000000000000000000815250600054610623565b6001805480602002602001604051908101604052809291908181526020016000905b828210156104e557838290600052602060002090600302016040518060600160405290816000820160009054906101000a900473ffffffffffffffffffffffffffffffffffffffff1673ffffffffffffffffffffffffffffffffffffffff1673ffffffffffffffffffffffffffffffffffffffff16815260200160018201805461044a90610d8b565b80601f016020809104026020016040519081016040528092919081815260200182805461047690610d8b565b80156104c35780601f10610498576101008083540402835291602001916104c3565b820191906000526020600020905b8154815290600101906020018083116104a657829003601f168201915b50505050508152602001600282015481525050815260200190600101906103c1565b50505050905090565b610584816040516024016105029190610ad8565b6040516020818303038152906040527f41304fac000000000000000000000000000000000000000000000000000000007bffffffffffffffffffffffffffffffffffffffffffffffffffffffff19166020820180517bffffffffffffffffffffffffffffffffffffffffffffffffffffffff83818316178352505050506106bf565b50565b61061f828260405160240161059d929190610afa565b6040516020818303038152906040527f319af333000000000000000000000000000000000000000000000000000000007bffffffffffffffffffffffffffffffffffffffffffffffffffffffff19166020820180517bffffffffffffffffffffffffffffffffffffffffffffffffffffffff83818316178352505050506106bf565b5050565b6106bb8282604051602401610639929190610b2a565b6040516020818303038152906040527f9710a9d0000000000000000000000000000000000000000000000000000000007bffffffffffffffffffffffffffffffffffffffffffffffffffffffff19166020820180517bffffffffffffffffffffffffffffffffffffffffffffffffffffffff83818316178352505050506106bf565b5050565b60008151905060006a636f6e736f6c652e6c6f679050602083016000808483855afa5050505050565b8280546106f490610d8b565b90600052602060002090601f016020900481019282610716576000855561075d565b82601f1061072f57805160ff191683800117855561075d565b8280016001018555821561075d579182015b8281111561075c578251825591602001919060010190610741565b5b50905061076a919061076e565b5090565b5b8082111561078757600081600090555060010161076f565b5090565b600061079e61079984610c16565b610be5565b9050828152602081018484840111156107b657600080fd5b6107c1848285610d49565b509392505050565b600082601f8301126107da57600080fd5b81356107ea84826020860161078b565b91505092915050565b60006020828403121561080557600080fd5b600082013567ffffffffffffffff81111561081f57600080fd5b61082b848285016107c9565b91505092915050565b60006108408383610a33565b905092915050565b61085181610d0d565b82525050565b61086081610d0d565b82525050565b600061087182610c56565b61087b8185610c79565b93508360208202850161088d85610c46565b8060005b858110156108c957848403895281516108aa8582610834565b94506108b583610c6c565b925060208a01995050600181019050610891565b50829750879550505050505092915050565b60006108e682610c61565b6108f08185610c95565b9350610900818560208601610d58565b61090981610e4a565b840191505092915050565b600061091f82610c61565b6109298185610ca6565b9350610939818560208601610d58565b61094281610e4a565b840191505092915050565b600061095a603483610ca6565b91507f547279696e6720746f207769746864726177206d6f7265206d6f6e657920746860008301527f616e2074686520636f6e7472616374206861732e0000000000000000000000006020830152604082019050919050565b60006109c0602783610ca6565b91507f4661696c656420746f207769746864726177206d6f6e65792066726f6d20636f60008301527f6e74726163742e000000000000000000000000000000000000000000000000006020830152604082019050919050565b6000610a26600083610c8a565b9150600082019050919050565b6000606083016000830151610a4b6000860182610848565b5060208301518482036020860152610a6382826108db565b9150506040830151610a786040860182610a83565b508091505092915050565b610a8c81610d3f565b82525050565b610a9b81610d3f565b82525050565b6000610aac82610a19565b9150819050919050565b60006020820190508181036000830152610ad08184610866565b905092915050565b60006020820190508181036000830152610af28184610914565b905092915050565b60006040820190508181036000830152610b148185610914565b9050610b236020830184610857565b9392505050565b60006040820190508181036000830152610b448185610914565b9050610b536020830184610a92565b9392505050565b60006020820190508181036000830152610b738161094d565b9050919050565b60006020820190508181036000830152610b93816109b3565b9050919050565b6000602082019050610baf6000830184610a92565b92915050565b6000604082019050610bca6000830185610a92565b8181036020830152610bdc8184610914565b90509392505050565b6000604051905081810181811067ffffffffffffffff82111715610c0c57610c0b610e1b565b5b8060405250919050565b600067ffffffffffffffff821115610c3157610c30610e1b565b5b601f19601f8301169050602081019050919050565b6000819050602082019050919050565b600081519050919050565b600081519050919050565b6000602082019050919050565b600082825260208201905092915050565b600081905092915050565b600082825260208201905092915050565b600082825260208201905092915050565b6000610cc282610d3f565b9150610ccd83610d3f565b9250827fffffffffffffffffffffffffffffffffffffffffffffffffffffffffffffffff03821115610d0257610d01610dbd565b5b828201905092915050565b6000610d1882610d1f565b9050919050565b600073ffffffffffffffffffffffffffffffffffffffff82169050919050565b6000819050919050565b82818337600083830152505050565b60005b83811015610d76578082015181840152602081019050610d5b565b83811115610d85576000848401525b50505050565b60006002820490506001821680610da357607f821691505b60208210811415610db757610db6610dec565b5b50919050565b7f4e487b7100000000000000000000000000000000000000000000000000000000600052601160045260246000fd5b7f4e487b7100000000000000000000000000000000000000000000000000000000600052602260045260246000fd5b7f4e487b7100000000000000000000000000000000000000000000000000000000600052604160045260246000fd5b6000601f19601f830116905091905056fea26469706673582212202050469e4cea46568bea673ea3d955cdd9adf384773133c85c8f099b37454cb564736f6c63430008000033",
  "linkReferences": {},
  "deployedLinkReferences": {}
}