{
  "_format": "hh-sol-artifact-1",
  "contractName": "HugSenderWithGifts",
  "sourceName": "contracts/HugSenderWithGifts.sol",
  "abi": [
    {
      "inputs": [],
      "stateMutability": "payable",
      "type": "constructor"
    },
    {
      "anonymous": false,
      "inputs": [
        {
          "indexed": true,
          "internalType": "address",
          "name": "from",
          "type": "address"
        },
        {
          "indexed": false,
          "internalType": "uint256",
          "name": "timestamp",
          "type": "uint256"
        },
        {
          "indexed": false,
          "internalType": "string",
          "name": "message",
          "type": "string"
        }
      ],
      "name": "NewHug",
      "type": "event"
    },
    {
      "inputs": [],
      "name": "getAllHugs",
      "outputs": [
        {
          "components": [
            {
              "internalType": "address",
              "name": "hugger",
              "type": "address"
            },
            {
              "internalType": "string",
              "name": "message",
              "type": "string"
            },
            {
              "internalType": "uint256",
              "name": "timestamp",
              "type": "uint256"
            }
          ],
          "internalType": "struct HugSenderWithGifts.Hug[]",
          "name": "",
          "type": "tuple[]"
        }
      ],
      "stateMutability": "view",
      "type": "function"
    },
    {
      "inputs": [],
      "name": "getLastHugged",
      "outputs": [
        {
          "internalType": "uint256",
          "name": "",
          "type": "uint256"
        }
      ],
      "stateMutability": "view",
      "type": "function"
    },
    {
      "inputs": [],
      "name": "getTotalHugs",
      "outputs": [
        {
          "internalType": "uint256",
          "name": "",
          "type": "uint256"
        }
      ],
      "stateMutability": "view",
      "type": "function"
    },
    {
      "inputs": [
        {
          "internalType": "string",
          "name": "_message",
          "type": "string"
        }
      ],
      "name": "hugMe",
      "outputs": [],
      "stateMutability": "nonpayable",
      "type": "function"
    },
    {
      "inputs": [
        {
          "internalType": "address",
          "name": "",
          "type": "address"
        }
      ],
      "name": "lastWavedAt",
      "outputs": [
        {
          "internalType": "uint256",
          "name": "",
          "type": "uint256"
        }
      ],
      "stateMutability": "view",
      "type": "function"
    },
    {
      "stateMutability": "payable",
      "type": "receive"
    }
  ],
  "bytecode": "0x6080604052610dcf806100136000396000f3fe60806040526004361061004e5760003560e01c806323dcc61b1461005a5780634222088114610083578063677f0c21146100ae578063a42a4663146100d9578063cd9a93e41461011657610055565b3661005557005b600080fd5b34801561006657600080fd5b50610081600480360381019061007c919061074b565b610141565b005b34801561008f57600080fd5b50610098610449565b6040516100a59190610ac1565b60405180910390f35b3480156100ba57600080fd5b506100c3610452565b6040516100d09190610a3f565b60405180910390f35b3480156100e557600080fd5b5061010060048036038101906100fb9190610722565b6105a3565b60405161010d9190610ac1565b60405180910390f35b34801561012257600080fd5b5061012b6105bb565b6040516101389190610ac1565b60405180910390f35b426202a300600260003373ffffffffffffffffffffffffffffffffffffffff1673ffffffffffffffffffffffffffffffffffffffff168152602001908152602001600020546101909190610bde565b106101d0576040517f08c379a00000000000000000000000000000000000000000000000000000000081526004016101c790610aa1565b60405180910390fd5b42600260003373ffffffffffffffffffffffffffffffffffffffff1673ffffffffffffffffffffffffffffffffffffffff1681526020019081526020016000208190555060016000808282546102269190610bde565b92505081905550600160405180606001604052803373ffffffffffffffffffffffffffffffffffffffff16815260200183815260200142815250908060018154018082558091505060019003906000526020600020906003020160009091909190915060008201518160000160006101000a81548173ffffffffffffffffffffffffffffffffffffffff021916908373ffffffffffffffffffffffffffffffffffffffff16021790555060208201518160010190805190602001906102ec929190610602565b506040820151816002015550503373ffffffffffffffffffffffffffffffffffffffff167fa5963c21658af7cb8ea8def690d3353743bf24a79c848dc45252fcb66042f4b14283604051610341929190610adc565b60405180910390a2600066038d7ea4c68000905047811115610398576040517f08c379a000000000000000000000000000000000000000000000000000000000815260040161038f90610a61565b60405180910390fd5b60003373ffffffffffffffffffffffffffffffffffffffff16826040516103be90610a2a565b60006040518083038185875af1925050503d80600081146103fb576040519150601f19603f3d011682016040523d82523d6000602084013e610400565b606091505b5050905080610444576040517f08c379a000000000000000000000000000000000000000000000000000000000815260040161043b90610a81565b60405180910390fd5b505050565b60008054905090565b60606001805480602002602001604051908101604052809291908181526020016000905b8282101561059a57838290600052602060002090600302016040518060600160405290816000820160009054906101000a900473ffffffffffffffffffffffffffffffffffffffff1673ffffffffffffffffffffffffffffffffffffffff1673ffffffffffffffffffffffffffffffffffffffff1681526020016001820180546104ff90610cb2565b80601f016020809104026020016040519081016040528092919081815260200182805461052b90610cb2565b80156105785780601f1061054d57610100808354040283529160200191610578565b820191906000526020600020905b81548152906001019060200180831161055b57829003601f168201915b5050505050815260200160028201548152505081526020019060010190610476565b50505050905090565b60026020528060005260406000206000915090505481565b6000600260003073ffffffffffffffffffffffffffffffffffffffff1673ffffffffffffffffffffffffffffffffffffffff16815260200190815260200160002054905090565b82805461060e90610cb2565b90600052602060002090601f0160209004810192826106305760008555610677565b82601f1061064957805160ff1916838001178555610677565b82800160010185558215610677579182015b8281111561067657825182559160200191906001019061065b565b5b5090506106849190610688565b5090565b5b808211156106a1576000816000905550600101610689565b5090565b60006106b86106b384610b3d565b610b0c565b9050828152602081018484840111156106d057600080fd5b6106db848285610c70565b509392505050565b6000813590506106f281610d82565b92915050565b600082601f83011261070957600080fd5b81356107198482602086016106a5565b91505092915050565b60006020828403121561073457600080fd5b6000610742848285016106e3565b91505092915050565b60006020828403121561075d57600080fd5b600082013567ffffffffffffffff81111561077757600080fd5b610783848285016106f8565b91505092915050565b600061079883836109bc565b905092915050565b6107a981610c34565b82525050565b60006107ba82610b7d565b6107c48185610ba0565b9350836020820285016107d685610b6d565b8060005b8581101561081257848403895281516107f3858261078c565b94506107fe83610b93565b925060208a019950506001810190506107da565b50829750879550505050505092915050565b600061082f82610b88565b6108398185610bbc565b9350610849818560208601610c7f565b61085281610d71565b840191505092915050565b600061086882610b88565b6108728185610bcd565b9350610882818560208601610c7f565b61088b81610d71565b840191505092915050565b60006108a3603483610bcd565b91507f547279696e6720746f207769746864726177206d6f7265206d6f6e657920746860008301527f616e2074686520636f6e7472616374206861732e0000000000000000000000006020830152604082019050919050565b6000610909602783610bcd565b91507f4661696c656420746f207769746864726177206d6f6e65792066726f6d20636f60008301527f6e74726163742e000000000000000000000000000000000000000000000000006020830152604082019050919050565b600061096f600083610bb1565b9150600082019050919050565b6000610989600883610bcd565b91507f576169742031356d0000000000000000000000000000000000000000000000006000830152602082019050919050565b60006060830160008301516109d460008601826107a0565b50602083015184820360208601526109ec8282610824565b9150506040830151610a016040860182610a0c565b508091505092915050565b610a1581610c66565b82525050565b610a2481610c66565b82525050565b6000610a3582610962565b9150819050919050565b60006020820190508181036000830152610a5981846107af565b905092915050565b60006020820190508181036000830152610a7a81610896565b9050919050565b60006020820190508181036000830152610a9a816108fc565b9050919050565b60006020820190508181036000830152610aba8161097c565b9050919050565b6000602082019050610ad66000830184610a1b565b92915050565b6000604082019050610af16000830185610a1b565b8181036020830152610b03818461085d565b90509392505050565b6000604051905081810181811067ffffffffffffffff82111715610b3357610b32610d42565b5b8060405250919050565b600067ffffffffffffffff821115610b5857610b57610d42565b5b601f19601f8301169050602081019050919050565b6000819050602082019050919050565b600081519050919050565b600081519050919050565b6000602082019050919050565b600082825260208201905092915050565b600081905092915050565b600082825260208201905092915050565b600082825260208201905092915050565b6000610be982610c66565b9150610bf483610c66565b9250827fffffffffffffffffffffffffffffffffffffffffffffffffffffffffffffffff03821115610c2957610c28610ce4565b5b828201905092915050565b6000610c3f82610c46565b9050919050565b600073ffffffffffffffffffffffffffffffffffffffff82169050919050565b6000819050919050565b82818337600083830152505050565b60005b83811015610c9d578082015181840152602081019050610c82565b83811115610cac576000848401525b50505050565b60006002820490506001821680610cca57607f821691505b60208210811415610cde57610cdd610d13565b5b50919050565b7f4e487b7100000000000000000000000000000000000000000000000000000000600052601160045260246000fd5b7f4e487b7100000000000000000000000000000000000000000000000000000000600052602260045260246000fd5b7f4e487b7100000000000000000000000000000000000000000000000000000000600052604160045260246000fd5b6000601f19601f8301169050919050565b610d8b81610c34565b8114610d9657600080fd5b5056fea26469706673582212204b841447206e15267ace634693a18cb9d15db363b23ddf35cfb594d44068c8d264736f6c63430008000033",
  "linkReferences": {},
  "deployedLinkReferences": {}
}